{
  "transactions": [
    {
      "hash": "0x39b785fb0b126d7fe7fe3d07b47a92527aee9885ae8063d2a90070e80cf950e6",
      "transactionType": "CALL",
      "contractName": null,
      "contractAddress": "0x90df02551bb792286e8d4f13e0e357b4bf1d6a57",
      "function": "mintToTreasury(address[])",
      "arguments": [
        "[0x4c078361FC9BbB78DF910800A991C7c3DD2F6ce0, 0xDeadDeAddeAddEAddeadDEaDDEAdDeaDDeAD0000, 0xEA32A96608495e54156Ae48931A7c20f0dcc1a21, 0xbB06DCA3AE6887fAbF931640f67cab3e3a16F4dC, 0x420000000000000000000000000000000000000A]"
      ],
      "transaction": {
        "from": "0x3cbded22f878afc8d39dcd744d3fe62086b76193",
        "to": "0x90df02551bb792286e8d4f13e0e357b4bf1d6a57",
        "gas": "0x536e0",
        "value": "0x0",
        "input": "0x9cd19996000000000000000000000000000000000000000000000000000000000000002000000000000000000000000000000000000000000000000000000000000000050000000000000000000000004c078361fc9bbb78df910800a991c7c3dd2f6ce0000000000000000000000000deaddeaddeaddeaddeaddeaddeaddeaddead0000000000000000000000000000ea32a96608495e54156ae48931a7c20f0dcc1a21000000000000000000000000bb06dca3ae6887fabf931640f67cab3e3a16f4dc000000000000000000000000420000000000000000000000000000000000000a",
        "nonce": "0x8",
        "chainId": "0x440"
      },
      "additionalContracts": [],
      "isFixedGasLimit": false
    }
  ],
  "receipts": [],
  "libraries": [],
  "pending": [
    "0x39b785fb0b126d7fe7fe3d07b47a92527aee9885ae8063d2a90070e80cf950e6"
  ],
  "returns": {},
  "timestamp": 1721573675,
  "chain": 1088,
  "commit": "36de58b"
}