{
  "transactions": [
    {
      "hash": null,
      "transactionType": "CALL",
      "contractName": null,
      "contractAddress": "0x794a61358d6845594f94dc1db02a252b5b4814ad",
      "function": "mintToTreasury(address[])",
      "arguments": [
        "[0x8D11eC38a3EB5E956B052f67Da8Bdc9bef8Abf3E, 0xb3654dc3D10Ea7645f8319668E8F54d2574FBdC8, 0x04068DA6C83AFCFA0e13ba15A6696662335D5B75, 0x321162Cd933E2Be498Cd2267a90534A804051b11, 0x74b23882a30290451A17c44f4F05243b6b58C76d, 0x049d68029688eAbF473097a2fC38ef61633A3C7A, 0x6a07A792ab2965C72a5B8088d3a069A7aC3a993B, 0x21be370D5312f44cB42ce377BC9b8a0cEF1A4C83, 0x1E4F97b9f9F913c46F1632781732927B9019C68b, 0xae75A438b2E0cB8Bb01Ec1E1e376De11D44477CC]"
      ],
      "transaction": {
        "from": "0x3cbded22f878afc8d39dcd744d3fe62086b76193",
        "to": "0x794a61358d6845594f94dc1db02a252b5b4814ad",
        "gas": "0x9aec5",
        "value": "0x0",
        "input": "0x9cd199960000000000000000000000000000000000000000000000000000000000000020000000000000000000000000000000000000000000000000000000000000000a0000000000000000000000008d11ec38a3eb5e956b052f67da8bdc9bef8abf3e000000000000000000000000b3654dc3d10ea7645f8319668e8f54d2574fbdc800000000000000000000000004068da6c83afcfa0e13ba15a6696662335d5b75000000000000000000000000321162cd933e2be498cd2267a90534a804051b1100000000000000000000000074b23882a30290451a17c44f4f05243b6b58c76d000000000000000000000000049d68029688eabf473097a2fc38ef61633a3c7a0000000000000000000000006a07a792ab2965c72a5b8088d3a069a7ac3a993b00000000000000000000000021be370d5312f44cb42ce377bc9b8a0cef1a4c830000000000000000000000001e4f97b9f9f913c46f1632781732927b9019c68b000000000000000000000000ae75a438b2e0cb8bb01ec1e1e376de11d44477cc",
        "nonce": "0x0",
        "chainId": "0xfa"
      },
      "additionalContracts": [],
      "isFixedGasLimit": false
    }
  ],
  "receipts": [],
  "libraries": [],
  "pending": [],
  "returns": {},
  "timestamp": 1721573628,
  "chain": 250,
  "commit": "36de58b"
}