{
  "transactions": [
    {
      "hash": "0xb625d1a26f6e948795d002f77032a9fb6ec1535b4d0e481dd2486a370dd6bcd4",
      "transactionType": "CALL",
      "contractName": null,
      "contractAddress": "0x794a61358d6845594f94dc1db02a252b5b4814ad",
      "function": "mintToTreasury(address[])",
      "arguments": [
        "[0xd586E7F844cEa2F87f50152665BCbc2C279D8d70, 0x5947BB275c521040051D82396192181b413227A3, 0xB97EF9Ef8734C71904D8002F8b6Bc66Dd9c48a6E, 0x50b7545627a5162F82A992c33b87aDc75187B218, 0x49D5c2BdFfac6CE2BFdB6640F4F80f226bc10bAB, 0x9702230A8Ea53601f5cD2dc00fDBc13d4dF4A8c7, 0x63a72806098Bd3D9520cC43356dD78afe5D386D9, 0xB31f66AA3C1e785363F0875A1B74E27b85FD66c7, 0x2b2C81e08f1Af8835a78Bb2A90AE924ACE0eA4bE, 0xD24C2Ad096400B6FBcd2ad8B24E7acBc21A1da64, 0x5c49b268c9841AFF1Cc3B0a418ff5c3442eE3F3b, 0x152b9d0FdC40C096757F570A51E494bd4b943E50]"
      ],
      "transaction": {
        "from": "0x3cbded22f878afc8d39dcd744d3fe62086b76193",
        "to": "0x794a61358d6845594f94dc1db02a252b5b4814ad",
        "gas": "0xc16c6",
        "value": "0x0",
        "input": "0x9cd199960000000000000000000000000000000000000000000000000000000000000020000000000000000000000000000000000000000000000000000000000000000c000000000000000000000000d586e7f844cea2f87f50152665bcbc2c279d8d700000000000000000000000005947bb275c521040051d82396192181b413227a3000000000000000000000000b97ef9ef8734c71904d8002f8b6bc66dd9c48a6e00000000000000000000000050b7545627a5162f82a992c33b87adc75187b21800000000000000000000000049d5c2bdffac6ce2bfdb6640f4f80f226bc10bab0000000000000000000000009702230a8ea53601f5cd2dc00fdbc13d4df4a8c700000000000000000000000063a72806098bd3d9520cc43356dd78afe5d386d9000000000000000000000000b31f66aa3c1e785363f0875a1b74e27b85fd66c70000000000000000000000002b2c81e08f1af8835a78bb2a90ae924ace0ea4be000000000000000000000000d24c2ad096400b6fbcd2ad8b24e7acbc21a1da640000000000000000000000005c49b268c9841aff1cc3b0a418ff5c3442ee3f3b000000000000000000000000152b9d0fdc40c096757f570a51e494bd4b943e50",
        "nonce": "0x1",
        "chainId": "0xa86a"
      },
      "additionalContracts": [],
      "isFixedGasLimit": false
    }
  ],
  "receipts": [
    {
      "status": "0x1",
      "cumulativeGasUsed": "0xa2816",
      "logs": [
        {
          "address": "0x82e64f49ed5ec1bc6e43dad4fc8af9bb3a2312ee",
          "topics": [
            "0xddf252ad1be2c89b69c2b068fc378daa952ba7f163c4a11628f55a4df523b3ef",
            "0x0000000000000000000000000000000000000000000000000000000000000000",
            "0x0000000000000000000000005ba7fd868c40c16f7adfae6cf87121e13fc2f7a0"
          ],
          "data": "0x00000000000000000000000000000000000000000000002c36abcc29087013a5",
          "blockHash": "0xd38384c0a52798a598bfff97c21af17e5cae2d86251bbda602e19639d039d70b",
          "blockNumber": "0x2e04e5b",
          "transactionHash": "0xb625d1a26f6e948795d002f77032a9fb6ec1535b4d0e481dd2486a370dd6bcd4",
          "transactionIndex": "0x1",
          "logIndex": "0x1",
          "removed": false
        },
        {
          "address": "0x82e64f49ed5ec1bc6e43dad4fc8af9bb3a2312ee",
          "topics": [
            "0x458f5fa412d0f69b08dd84872b0215675cc67bc1d5b6fd93300a1c3878b86196",
            "0x000000000000000000000000794a61358d6845594f94dc1db02a252b5b4814ad",
            "0x0000000000000000000000005ba7fd868c40c16f7adfae6cf87121e13fc2f7a0"
          ],
          "data": "0x00000000000000000000000000000000000000000000002c36abcc29087013a500000000000000000000000000000000000000000000001020a7fa1caf2424480000000000000000000000000000000000000000038a2c0ceb2015f2e1d403d7",
          "blockHash": "0xd38384c0a52798a598bfff97c21af17e5cae2d86251bbda602e19639d039d70b",
          "blockNumber": "0x2e04e5b",
          "transactionHash": "0xb625d1a26f6e948795d002f77032a9fb6ec1535b4d0e481dd2486a370dd6bcd4",
          "transactionIndex": "0x1",
          "logIndex": "0x2",
          "removed": false
        },
        {
          "address": "0x794a61358d6845594f94dc1db02a252b5b4814ad",
          "topics": [
            "0xbfa21aa5d5f9a1f0120a95e7c0749f389863cbdbfff531aa7339077a5bc919de",
            "0x000000000000000000000000d586e7f844cea2f87f50152665bcbc2c279d8d70"
          ],
          "data": "0x00000000000000000000000000000000000000000000001c1603d20c594bef5d",
          "blockHash": "0xd38384c0a52798a598bfff97c21af17e5cae2d86251bbda602e19639d039d70b",
          "blockNumber": "0x2e04e5b",
          "transactionHash": "0xb625d1a26f6e948795d002f77032a9fb6ec1535b4d0e481dd2486a370dd6bcd4",
          "transactionIndex": "0x1",
          "logIndex": "0x3",
          "removed": false
        },
        {
          "address": "0x191c10aa4af7c30e871e70c95db0e4eb77237530",
          "topics": [
            "0xddf252ad1be2c89b69c2b068fc378daa952ba7f163c4a11628f55a4df523b3ef",
            "0x0000000000000000000000000000000000000000000000000000000000000000",
            "0x0000000000000000000000005ba7fd868c40c16f7adfae6cf87121e13fc2f7a0"
          ],
          "data": "0x0000000000000000000000000000000000000000000000000050c41ffb708087",
          "blockHash": "0xd38384c0a52798a598bfff97c21af17e5cae2d86251bbda602e19639d039d70b",
          "blockNumber": "0x2e04e5b",
          "transactionHash": "0xb625d1a26f6e948795d002f77032a9fb6ec1535b4d0e481dd2486a370dd6bcd4",
          "transactionIndex": "0x1",
          "logIndex": "0x4",
          "removed": false
        },
        {
          "address": "0x191c10aa4af7c30e871e70c95db0e4eb77237530",
          "topics": [
            "0x458f5fa412d0f69b08dd84872b0215675cc67bc1d5b6fd93300a1c3878b86196",
            "0x000000000000000000000000794a61358d6845594f94dc1db02a252b5b4814ad",
            "0x0000000000000000000000005ba7fd868c40c16f7adfae6cf87121e13fc2f7a0"
          ],
          "data": "0x0000000000000000000000000000000000000000000000000050c41ffb70808700000000000000000000000000000000000000000000000000000b29f15886770000000000000000000000000000000000000000033d3e0ea3af97a817798a38",
          "blockHash": "0xd38384c0a52798a598bfff97c21af17e5cae2d86251bbda602e19639d039d70b",
          "blockNumber": "0x2e04e5b",
          "transactionHash": "0xb625d1a26f6e948795d002f77032a9fb6ec1535b4d0e481dd2486a370dd6bcd4",
          "transactionIndex": "0x1",
          "logIndex": "0x5",
          "removed": false
        },
        {
          "address": "0x794a61358d6845594f94dc1db02a252b5b4814ad",
          "topics": [
            "0xbfa21aa5d5f9a1f0120a95e7c0749f389863cbdbfff531aa7339077a5bc919de",
            "0x0000000000000000000000005947bb275c521040051d82396192181b413227a3"
          ],
          "data": "0x0000000000000000000000000000000000000000000000000050b8f60a17fa10",
          "blockHash": "0xd38384c0a52798a598bfff97c21af17e5cae2d86251bbda602e19639d039d70b",
          "blockNumber": "0x2e04e5b",
          "transactionHash": "0xb625d1a26f6e948795d002f77032a9fb6ec1535b4d0e481dd2486a370dd6bcd4",
          "transactionIndex": "0x1",
          "logIndex": "0x6",
          "removed": false
        },
        {
          "address": "0x625e7708f30ca75bfd92586e17077590c60eb4cd",
          "topics": [
            "0xddf252ad1be2c89b69c2b068fc378daa952ba7f163c4a11628f55a4df523b3ef",
            "0x0000000000000000000000000000000000000000000000000000000000000000",
            "0x0000000000000000000000005ba7fd868c40c16f7adfae6cf87121e13fc2f7a0"
          ],
          "data": "0x00000000000000000000000000000000000000000000000000000000a849e1eb",
          "blockHash": "0xd38384c0a52798a598bfff97c21af17e5cae2d86251bbda602e19639d039d70b",
          "blockNumber": "0x2e04e5b",
          "transactionHash": "0xb625d1a26f6e948795d002f77032a9fb6ec1535b4d0e481dd2486a370dd6bcd4",
          "transactionIndex": "0x1",
          "logIndex": "0x7",
          "removed": false
        },
        {
          "address": "0x625e7708f30ca75bfd92586e17077590c60eb4cd",
          "topics": [
            "0x458f5fa412d0f69b08dd84872b0215675cc67bc1d5b6fd93300a1c3878b86196",
            "0x000000000000000000000000794a61358d6845594f94dc1db02a252b5b4814ad",
            "0x0000000000000000000000005ba7fd868c40c16f7adfae6cf87121e13fc2f7a0"
          ],
          "data": "0x00000000000000000000000000000000000000000000000000000000a849e1eb000000000000000000000000000000000000000000000000000000002904760f000000000000000000000000000000000000000003906474b1a6c4c0b4d4e395",
          "blockHash": "0xd38384c0a52798a598bfff97c21af17e5cae2d86251bbda602e19639d039d70b",
          "blockNumber": "0x2e04e5b",
          "transactionHash": "0xb625d1a26f6e948795d002f77032a9fb6ec1535b4d0e481dd2486a370dd6bcd4",
          "transactionIndex": "0x1",
          "logIndex": "0x8",
          "removed": false
        },
        {
          "address": "0x794a61358d6845594f94dc1db02a252b5b4814ad",
          "topics": [
            "0xbfa21aa5d5f9a1f0120a95e7c0749f389863cbdbfff531aa7339077a5bc919de",
            "0x000000000000000000000000b97ef9ef8734c71904d8002f8b6bc66dd9c48a6e"
          ],
          "data": "0x000000000000000000000000000000000000000000000000000000007f456bdc",
          "blockHash": "0xd38384c0a52798a598bfff97c21af17e5cae2d86251bbda602e19639d039d70b",
          "blockNumber": "0x2e04e5b",
          "transactionHash": "0xb625d1a26f6e948795d002f77032a9fb6ec1535b4d0e481dd2486a370dd6bcd4",
          "transactionIndex": "0x1",
          "logIndex": "0x9",
          "removed": false
        },
        {
          "address": "0xe50fa9b3c56ffb159cb0fca61f5c9d750e8128c8",
          "topics": [
            "0xddf252ad1be2c89b69c2b068fc378daa952ba7f163c4a11628f55a4df523b3ef",
            "0x0000000000000000000000000000000000000000000000000000000000000000",
            "0x0000000000000000000000005ba7fd868c40c16f7adfae6cf87121e13fc2f7a0"
          ],
          "data": "0x000000000000000000000000000000000000000000000000009da5555e07c8d5",
          "blockHash": "0xd38384c0a52798a598bfff97c21af17e5cae2d86251bbda602e19639d039d70b",
          "blockNumber": "0x2e04e5b",
          "transactionHash": "0xb625d1a26f6e948795d002f77032a9fb6ec1535b4d0e481dd2486a370dd6bcd4",
          "transactionIndex": "0x1",
          "logIndex": "0xa",
          "removed": false
        },
        {
          "address": "0xe50fa9b3c56ffb159cb0fca61f5c9d750e8128c8",
          "topics": [
            "0x458f5fa412d0f69b08dd84872b0215675cc67bc1d5b6fd93300a1c3878b86196",
            "0x000000000000000000000000794a61358d6845594f94dc1db02a252b5b4814ad",
            "0x0000000000000000000000005ba7fd868c40c16f7adfae6cf87121e13fc2f7a0"
          ],
          "data": "0x000000000000000000000000000000000000000000000000009da5555e07c8d500000000000000000000000000000000000000000000000000058be8b1a8e2fc0000000000000000000000000000000000000000034569d5cdbeed75320c9e66",
          "blockHash": "0xd38384c0a52798a598bfff97c21af17e5cae2d86251bbda602e19639d039d70b",
          "blockNumber": "0x2e04e5b",
          "transactionHash": "0xb625d1a26f6e948795d002f77032a9fb6ec1535b4d0e481dd2486a370dd6bcd4",
          "transactionIndex": "0x1",
          "logIndex": "0xb",
          "removed": false
        },
        {
          "address": "0x794a61358d6845594f94dc1db02a252b5b4814ad",
          "topics": [
            "0xbfa21aa5d5f9a1f0120a95e7c0749f389863cbdbfff531aa7339077a5bc919de",
            "0x00000000000000000000000049d5c2bdffac6ce2bfdb6640f4f80f226bc10bab"
          ],
          "data": "0x0000000000000000000000000000000000000000000000000098196cac5ee5d9",
          "blockHash": "0xd38384c0a52798a598bfff97c21af17e5cae2d86251bbda602e19639d039d70b",
          "blockNumber": "0x2e04e5b",
          "transactionHash": "0xb625d1a26f6e948795d002f77032a9fb6ec1535b4d0e481dd2486a370dd6bcd4",
          "transactionIndex": "0x1",
          "logIndex": "0xc",
          "removed": false
        },
        {
          "address": "0x6ab707aca953edaefbc4fd23ba73294241490620",
          "topics": [
            "0xddf252ad1be2c89b69c2b068fc378daa952ba7f163c4a11628f55a4df523b3ef",
            "0x0000000000000000000000000000000000000000000000000000000000000000",
            "0x0000000000000000000000005ba7fd868c40c16f7adfae6cf87121e13fc2f7a0"
          ],
          "data": "0x000000000000000000000000000000000000000000000000000000004abfbad8",
          "blockHash": "0xd38384c0a52798a598bfff97c21af17e5cae2d86251bbda602e19639d039d70b",
          "blockNumber": "0x2e04e5b",
          "transactionHash": "0xb625d1a26f6e948795d002f77032a9fb6ec1535b4d0e481dd2486a370dd6bcd4",
          "transactionIndex": "0x1",
          "logIndex": "0xd",
          "removed": false
        },
        {
          "address": "0x6ab707aca953edaefbc4fd23ba73294241490620",
          "topics": [
            "0x458f5fa412d0f69b08dd84872b0215675cc67bc1d5b6fd93300a1c3878b86196",
            "0x000000000000000000000000794a61358d6845594f94dc1db02a252b5b4814ad",
            "0x0000000000000000000000005ba7fd868c40c16f7adfae6cf87121e13fc2f7a0"
          ],
          "data": "0x000000000000000000000000000000000000000000000000000000004abfbad80000000000000000000000000000000000000000000000000000000012d49035000000000000000000000000000000000000000003a3c2d5ff665e23e8f2ec47",
          "blockHash": "0xd38384c0a52798a598bfff97c21af17e5cae2d86251bbda602e19639d039d70b",
          "blockNumber": "0x2e04e5b",
          "transactionHash": "0xb625d1a26f6e948795d002f77032a9fb6ec1535b4d0e481dd2486a370dd6bcd4",
          "transactionIndex": "0x1",
          "logIndex": "0xe",
          "removed": false
        },
        {
          "address": "0x794a61358d6845594f94dc1db02a252b5b4814ad",
          "topics": [
            "0xbfa21aa5d5f9a1f0120a95e7c0749f389863cbdbfff531aa7339077a5bc919de",
            "0x0000000000000000000000009702230a8ea53601f5cd2dc00fdbc13d4df4a8c7"
          ],
          "data": "0x0000000000000000000000000000000000000000000000000000000037eb2aa3",
          "blockHash": "0xd38384c0a52798a598bfff97c21af17e5cae2d86251bbda602e19639d039d70b",
          "blockNumber": "0x2e04e5b",
          "transactionHash": "0xb625d1a26f6e948795d002f77032a9fb6ec1535b4d0e481dd2486a370dd6bcd4",
          "transactionIndex": "0x1",
          "logIndex": "0xf",
          "removed": false
        },
        {
          "address": "0xf329e36c7bf6e5e86ce2150875a84ce77f477375",
          "topics": [
            "0xddf252ad1be2c89b69c2b068fc378daa952ba7f163c4a11628f55a4df523b3ef",
            "0x0000000000000000000000000000000000000000000000000000000000000000",
            "0x0000000000000000000000005ba7fd868c40c16f7adfae6cf87121e13fc2f7a0"
          ],
          "data": "0x000000000000000000000000000000000000000000000000000001a99f70dd7b",
          "blockHash": "0xd38384c0a52798a598bfff97c21af17e5cae2d86251bbda602e19639d039d70b",
          "blockNumber": "0x2e04e5b",
          "transactionHash": "0xb625d1a26f6e948795d002f77032a9fb6ec1535b4d0e481dd2486a370dd6bcd4",
          "transactionIndex": "0x1",
          "logIndex": "0x10",
          "removed": false
        },
        {
          "address": "0xf329e36c7bf6e5e86ce2150875a84ce77f477375",
          "topics": [
            "0x458f5fa412d0f69b08dd84872b0215675cc67bc1d5b6fd93300a1c3878b86196",
            "0x000000000000000000000000794a61358d6845594f94dc1db02a252b5b4814ad",
            "0x0000000000000000000000005ba7fd868c40c16f7adfae6cf87121e13fc2f7a0"
          ],
          "data": "0x000000000000000000000000000000000000000000000000000001a99f70dd7b000000000000000000000000000000000000000000000000000000c09fec2eca0000000000000000000000000000000000000000033b899b3285a67905330c56",
          "blockHash": "0xd38384c0a52798a598bfff97c21af17e5cae2d86251bbda602e19639d039d70b",
          "blockNumber": "0x2e04e5b",
          "transactionHash": "0xb625d1a26f6e948795d002f77032a9fb6ec1535b4d0e481dd2486a370dd6bcd4",
          "transactionIndex": "0x1",
          "logIndex": "0x11",
          "removed": false
        },
        {
          "address": "0x794a61358d6845594f94dc1db02a252b5b4814ad",
          "topics": [
            "0xbfa21aa5d5f9a1f0120a95e7c0749f389863cbdbfff531aa7339077a5bc919de",
            "0x00000000000000000000000063a72806098bd3d9520cc43356dd78afe5d386d9"
          ],
          "data": "0x000000000000000000000000000000000000000000000000000000e8ff84aeb1",
          "blockHash": "0xd38384c0a52798a598bfff97c21af17e5cae2d86251bbda602e19639d039d70b",
          "blockNumber": "0x2e04e5b",
          "transactionHash": "0xb625d1a26f6e948795d002f77032a9fb6ec1535b4d0e481dd2486a370dd6bcd4",
          "transactionIndex": "0x1",
          "logIndex": "0x12",
          "removed": false
        },
        {
          "address": "0x6d80113e533a2c0fe82eabd35f1875dcea89ea97",
          "topics": [
            "0xddf252ad1be2c89b69c2b068fc378daa952ba7f163c4a11628f55a4df523b3ef",
            "0x0000000000000000000000000000000000000000000000000000000000000000",
            "0x0000000000000000000000005ba7fd868c40c16f7adfae6cf87121e13fc2f7a0"
          ],
          "data": "0x0000000000000000000000000000000000000000000000032aa43a1de3cdda7a",
          "blockHash": "0xd38384c0a52798a598bfff97c21af17e5cae2d86251bbda602e19639d039d70b",
          "blockNumber": "0x2e04e5b",
          "transactionHash": "0xb625d1a26f6e948795d002f77032a9fb6ec1535b4d0e481dd2486a370dd6bcd4",
          "transactionIndex": "0x1",
          "logIndex": "0x13",
          "removed": false
        },
        {
          "address": "0x6d80113e533a2c0fe82eabd35f1875dcea89ea97",
          "topics": [
            "0x458f5fa412d0f69b08dd84872b0215675cc67bc1d5b6fd93300a1c3878b86196",
            "0x000000000000000000000000794a61358d6845594f94dc1db02a252b5b4814ad",
            "0x0000000000000000000000005ba7fd868c40c16f7adfae6cf87121e13fc2f7a0"
          ],
          "data": "0x0000000000000000000000000000000000000000000000032aa43a1de3cdda7a0000000000000000000000000000000000000000000000001e8b4a7ecfd7b8410000000000000000000000000000000000000000036441f2fdaf9b7bcc5c50da",
          "blockHash": "0xd38384c0a52798a598bfff97c21af17e5cae2d86251bbda602e19639d039d70b",
          "blockNumber": "0x2e04e5b",
          "transactionHash": "0xb625d1a26f6e948795d002f77032a9fb6ec1535b4d0e481dd2486a370dd6bcd4",
          "transactionIndex": "0x1",
          "logIndex": "0x14",
          "removed": false
        },
        {
          "address": "0x794a61358d6845594f94dc1db02a252b5b4814ad",
          "topics": [
            "0xbfa21aa5d5f9a1f0120a95e7c0749f389863cbdbfff531aa7339077a5bc919de",
            "0x000000000000000000000000b31f66aa3c1e785363f0875a1b74e27b85fd66c7"
          ],
          "data": "0x0000000000000000000000000000000000000000000000030c18ef9f13f62239",
          "blockHash": "0xd38384c0a52798a598bfff97c21af17e5cae2d86251bbda602e19639d039d70b",
          "blockNumber": "0x2e04e5b",
          "transactionHash": "0xb625d1a26f6e948795d002f77032a9fb6ec1535b4d0e481dd2486a370dd6bcd4",
          "transactionIndex": "0x1",
          "logIndex": "0x15",
          "removed": false
        },
        {
          "address": "0x513c7e3a9c69ca3e22550ef58ac1c0088e918fff",
          "topics": [
            "0xddf252ad1be2c89b69c2b068fc378daa952ba7f163c4a11628f55a4df523b3ef",
            "0x0000000000000000000000000000000000000000000000000000000000000000",
            "0x0000000000000000000000005ba7fd868c40c16f7adfae6cf87121e13fc2f7a0"
          ],
          "data": "0x00000000000000000000000000000000000000000000000000000b61e790e6bc",
          "blockHash": "0xd38384c0a52798a598bfff97c21af17e5cae2d86251bbda602e19639d039d70b",
          "blockNumber": "0x2e04e5b",
          "transactionHash": "0xb625d1a26f6e948795d002f77032a9fb6ec1535b4d0e481dd2486a370dd6bcd4",
          "transactionIndex": "0x1",
          "logIndex": "0x16",
          "removed": false
        },
        {
          "address": "0x513c7e3a9c69ca3e22550ef58ac1c0088e918fff",
          "topics": [
            "0x458f5fa412d0f69b08dd84872b0215675cc67bc1d5b6fd93300a1c3878b86196",
            "0x000000000000000000000000794a61358d6845594f94dc1db02a252b5b4814ad",
            "0x0000000000000000000000005ba7fd868c40c16f7adfae6cf87121e13fc2f7a0"
          ],
          "data": "0x00000000000000000000000000000000000000000000000000000b61e790e6bc00000000000000000000000000000000000000000000000000000077efd426bc0000000000000000000000000000000000000000033c3e9a2ac24fe90430513f",
          "blockHash": "0xd38384c0a52798a598bfff97c21af17e5cae2d86251bbda602e19639d039d70b",
          "blockNumber": "0x2e04e5b",
          "transactionHash": "0xb625d1a26f6e948795d002f77032a9fb6ec1535b4d0e481dd2486a370dd6bcd4",
          "transactionIndex": "0x1",
          "logIndex": "0x17",
          "removed": false
        },
        {
          "address": "0x794a61358d6845594f94dc1db02a252b5b4814ad",
          "topics": [
            "0xbfa21aa5d5f9a1f0120a95e7c0749f389863cbdbfff531aa7339077a5bc919de",
            "0x0000000000000000000000002b2c81e08f1af8835a78bb2a90ae924ace0ea4be"
          ],
          "data": "0x00000000000000000000000000000000000000000000000000000ae9f7bcc000",
          "blockHash": "0xd38384c0a52798a598bfff97c21af17e5cae2d86251bbda602e19639d039d70b",
          "blockNumber": "0x2e04e5b",
          "transactionHash": "0xb625d1a26f6e948795d002f77032a9fb6ec1535b4d0e481dd2486a370dd6bcd4",
          "transactionIndex": "0x1",
          "logIndex": "0x18",
          "removed": false
        },
        {
          "address": "0xc45a479877e1e9dfe9fcd4056c699575a1045daa",
          "topics": [
            "0xddf252ad1be2c89b69c2b068fc378daa952ba7f163c4a11628f55a4df523b3ef",
            "0x0000000000000000000000000000000000000000000000000000000000000000",
            "0x0000000000000000000000005ba7fd868c40c16f7adfae6cf87121e13fc2f7a0"
          ],
          "data": "0x00000000000000000000000000000000000000000000000018a3468f1ac9d83f",
          "blockHash": "0xd38384c0a52798a598bfff97c21af17e5cae2d86251bbda602e19639d039d70b",
          "blockNumber": "0x2e04e5b",
          "transactionHash": "0xb625d1a26f6e948795d002f77032a9fb6ec1535b4d0e481dd2486a370dd6bcd4",
          "transactionIndex": "0x1",
          "logIndex": "0x19",
          "removed": false
        },
        {
          "address": "0xc45a479877e1e9dfe9fcd4056c699575a1045daa",
          "topics": [
            "0x458f5fa412d0f69b08dd84872b0215675cc67bc1d5b6fd93300a1c3878b86196",
            "0x000000000000000000000000794a61358d6845594f94dc1db02a252b5b4814ad",
            "0x0000000000000000000000005ba7fd868c40c16f7adfae6cf87121e13fc2f7a0"
          ],
          "data": "0x00000000000000000000000000000000000000000000000018a3468f1ac9d83f00000000000000000000000000000000000000000000000001d6748360f51706000000000000000000000000000000000000000003c191081c9a3b1709faee26",
          "blockHash": "0xd38384c0a52798a598bfff97c21af17e5cae2d86251bbda602e19639d039d70b",
          "blockNumber": "0x2e04e5b",
          "transactionHash": "0xb625d1a26f6e948795d002f77032a9fb6ec1535b4d0e481dd2486a370dd6bcd4",
          "transactionIndex": "0x1",
          "logIndex": "0x1a",
          "removed": false
        },
        {
          "address": "0x794a61358d6845594f94dc1db02a252b5b4814ad",
          "topics": [
            "0xbfa21aa5d5f9a1f0120a95e7c0749f389863cbdbfff531aa7339077a5bc919de",
            "0x000000000000000000000000d24c2ad096400b6fbcd2ad8b24e7acbc21a1da64"
          ],
          "data": "0x00000000000000000000000000000000000000000000000016ccd20bb9d4c139",
          "blockHash": "0xd38384c0a52798a598bfff97c21af17e5cae2d86251bbda602e19639d039d70b",
          "blockNumber": "0x2e04e5b",
          "transactionHash": "0xb625d1a26f6e948795d002f77032a9fb6ec1535b4d0e481dd2486a370dd6bcd4",
          "transactionIndex": "0x1",
          "logIndex": "0x1b",
          "removed": false
        },
        {
          "address": "0x8ffdf2de812095b1d19cb146e4c004587c0a0692",
          "topics": [
            "0xddf252ad1be2c89b69c2b068fc378daa952ba7f163c4a11628f55a4df523b3ef",
            "0x0000000000000000000000000000000000000000000000000000000000000000",
            "0x0000000000000000000000005ba7fd868c40c16f7adfae6cf87121e13fc2f7a0"
          ],
          "data": "0x000000000000000000000000000000000000000000000000000000000000406d",
          "blockHash": "0xd38384c0a52798a598bfff97c21af17e5cae2d86251bbda602e19639d039d70b",
          "blockNumber": "0x2e04e5b",
          "transactionHash": "0xb625d1a26f6e948795d002f77032a9fb6ec1535b4d0e481dd2486a370dd6bcd4",
          "transactionIndex": "0x1",
          "logIndex": "0x1c",
          "removed": false
        },
        {
          "address": "0x8ffdf2de812095b1d19cb146e4c004587c0a0692",
          "topics": [
            "0x458f5fa412d0f69b08dd84872b0215675cc67bc1d5b6fd93300a1c3878b86196",
            "0x000000000000000000000000794a61358d6845594f94dc1db02a252b5b4814ad",
            "0x0000000000000000000000005ba7fd868c40c16f7adfae6cf87121e13fc2f7a0"
          ],
          "data": "0x000000000000000000000000000000000000000000000000000000000000406d000000000000000000000000000000000000000000000000000000000000006c0000000000000000000000000000000000000000033dc3aef242e9a8c295f98e",
          "blockHash": "0xd38384c0a52798a598bfff97c21af17e5cae2d86251bbda602e19639d039d70b",
          "blockNumber": "0x2e04e5b",
          "transactionHash": "0xb625d1a26f6e948795d002f77032a9fb6ec1535b4d0e481dd2486a370dd6bcd4",
          "transactionIndex": "0x1",
          "logIndex": "0x1d",
          "removed": false
        },
        {
          "address": "0x794a61358d6845594f94dc1db02a252b5b4814ad",
          "topics": [
            "0xbfa21aa5d5f9a1f0120a95e7c0749f389863cbdbfff531aa7339077a5bc919de",
            "0x000000000000000000000000152b9d0fdc40c096757f570a51e494bd4b943e50"
          ],
          "data": "0x0000000000000000000000000000000000000000000000000000000000004001",
          "blockHash": "0xd38384c0a52798a598bfff97c21af17e5cae2d86251bbda602e19639d039d70b",
          "blockNumber": "0x2e04e5b",
          "transactionHash": "0xb625d1a26f6e948795d002f77032a9fb6ec1535b4d0e481dd2486a370dd6bcd4",
          "transactionIndex": "0x1",
          "logIndex": "0x1e",
          "removed": false
        }
      ],
      "logsBloom": "0x00080808000400000000040000000000010000000400080400000000000000000001000000200040000004400404000051010400000004000000002102400000000000000000004800000008000000000000044008000000a00000048000000040000010420100000100000140000900000000400000000000100010000000000000000000000000080200000000000000040800000000000000000060000000000000000000000000000002010001000000000001004102000100000000000002008002000000000000000001000005400200000000000008000000800020008000000000000000000000000008000000200000000000200040000010000000",
      "type": "0x2",
      "transactionHash": "0xb625d1a26f6e948795d002f77032a9fb6ec1535b4d0e481dd2486a370dd6bcd4",
      "transactionIndex": "0x1",
      "blockHash": "0xd38384c0a52798a598bfff97c21af17e5cae2d86251bbda602e19639d039d70b",
      "blockNumber": "0x2e04e5b",
      "gasUsed": "0x97c10",
      "effectiveGasPrice": "0x66720b300",
      "from": "0x3cbded22f878afc8d39dcd744d3fe62086b76193",
      "to": "0x794a61358d6845594f94dc1db02a252b5b4814ad",
      "contractAddress": null
    }
  ],
  "libraries": [],
  "pending": [],
  "returns": {},
  "timestamp": 1721573584,
  "chain": 43114,
  "commit": "36de58b"
}