{
  "transactions": [
    {
      "hash": "0xe57fe504245c339e1b43c0fbe751e4b17bebbc8bf3dad946f6246f8dde262435",
      "transactionType": "CALL",
      "contractName": null,
      "contractAddress": "0x6807dc923806fe8fd134338eabca509979a7e0cb",
      "function": "mintToTreasury(address[])",
      "arguments": [
        "[0x0E09FaBB73Bd3Ade0a17ECC321fD13a19e81cE82, 0xbb4CdB9CBd36B01bD1cBaEBF2De08d9173bc095c, 0x7130d2A12B9BCbFAe4f2634d864A1Ee1Ce3Ead9c, 0x2170Ed0880ac9A755fd29B2688956BD959F933F8, 0x8AC76a51cc950d9822D68b83fE1Ad97B32Cd580d, 0x55d398326f99059fF775485246999027B3197955, 0xc5f0f7b66764F6ec8C8Dff7BA683102295E16409]"
      ],
      "transaction": {
        "from": "0x3cbded22f878afc8d39dcd744d3fe62086b76193",
        "to": "0x6807dc923806fe8fd134338eabca509979a7e0cb",
        "gas": "0x58f8a",
        "value": "0x0",
        "input": "0x9cd19996000000000000000000000000000000000000000000000000000000000000002000000000000000000000000000000000000000000000000000000000000000070000000000000000000000000e09fabb73bd3ade0a17ecc321fd13a19e81ce82000000000000000000000000bb4cdb9cbd36b01bd1cbaebf2de08d9173bc095c0000000000000000000000007130d2a12b9bcbfae4f2634d864a1ee1ce3ead9c0000000000000000000000002170ed0880ac9a755fd29b2688956bd959f933f80000000000000000000000008ac76a51cc950d9822d68b83fe1ad97b32cd580d00000000000000000000000055d398326f99059ff775485246999027b3197955000000000000000000000000c5f0f7b66764f6ec8c8dff7ba683102295e16409",
        "nonce": "0x2",
        "chainId": "0x38"
      },
      "additionalContracts": [],
      "isFixedGasLimit": false
    }
  ],
  "receipts": [
    {
      "status": "0x1",
      "cumulativeGasUsed": "0x839c43",
      "logs": [
        {
          "address": "0x9b00a09492a626678e5a3009982191586c444df9",
          "topics": [
            "0xddf252ad1be2c89b69c2b068fc378daa952ba7f163c4a11628f55a4df523b3ef",
            "0x0000000000000000000000000000000000000000000000000000000000000000",
            "0x00000000000000000000000025ec457d1778b0e5316e7f38f3c22baf413f1a8c"
          ],
          "data": "0x000000000000000000000000000000000000000000000000000b3d2e1b580f80",
          "blockHash": "0x3b9d294e4e4bad8bb4881cf8388194fe4f7bccf6c3d402222196994c92f6ca3c",
          "blockNumber": "0x26c9135",
          "transactionHash": "0xe57fe504245c339e1b43c0fbe751e4b17bebbc8bf3dad946f6246f8dde262435",
          "transactionIndex": "0x43",
          "logIndex": "0xc0",
          "removed": false
        },
        {
          "address": "0x9b00a09492a626678e5a3009982191586c444df9",
          "topics": [
            "0x458f5fa412d0f69b08dd84872b0215675cc67bc1d5b6fd93300a1c3878b86196",
            "0x0000000000000000000000006807dc923806fe8fd134338eabca509979a7e0cb",
            "0x00000000000000000000000025ec457d1778b0e5316e7f38f3c22baf413f1a8c"
          ],
          "data": "0x000000000000000000000000000000000000000000000000000b3d2e1b580f8000000000000000000000000000000000000000000000000000001ddaab8c0f770000000000000000000000000000000000000000034b42f153720b296753d48e",
          "blockHash": "0x3b9d294e4e4bad8bb4881cf8388194fe4f7bccf6c3d402222196994c92f6ca3c",
          "blockNumber": "0x26c9135",
          "transactionHash": "0xe57fe504245c339e1b43c0fbe751e4b17bebbc8bf3dad946f6246f8dde262435",
          "transactionIndex": "0x43",
          "logIndex": "0xc1",
          "removed": false
        },
        {
          "address": "0x6807dc923806fe8fd134338eabca509979a7e0cb",
          "topics": [
            "0xbfa21aa5d5f9a1f0120a95e7c0749f389863cbdbfff531aa7339077a5bc919de",
            "0x000000000000000000000000bb4cdb9cbd36b01bd1cbaebf2de08d9173bc095c"
          ],
          "data": "0x000000000000000000000000000000000000000000000000000b1f536fcc0009",
          "blockHash": "0x3b9d294e4e4bad8bb4881cf8388194fe4f7bccf6c3d402222196994c92f6ca3c",
          "blockNumber": "0x26c9135",
          "transactionHash": "0xe57fe504245c339e1b43c0fbe751e4b17bebbc8bf3dad946f6246f8dde262435",
          "transactionIndex": "0x43",
          "logIndex": "0xc2",
          "removed": false
        },
        {
          "address": "0x56a7ddc4e848ebf43845854205ad71d5d5f72d3d",
          "topics": [
            "0xddf252ad1be2c89b69c2b068fc378daa952ba7f163c4a11628f55a4df523b3ef",
            "0x0000000000000000000000000000000000000000000000000000000000000000",
            "0x00000000000000000000000025ec457d1778b0e5316e7f38f3c22baf413f1a8c"
          ],
          "data": "0x000000000000000000000000000000000000000000000000000006caf71ddf04",
          "blockHash": "0x3b9d294e4e4bad8bb4881cf8388194fe4f7bccf6c3d402222196994c92f6ca3c",
          "blockNumber": "0x26c9135",
          "transactionHash": "0xe57fe504245c339e1b43c0fbe751e4b17bebbc8bf3dad946f6246f8dde262435",
          "transactionIndex": "0x43",
          "logIndex": "0xc3",
          "removed": false
        },
        {
          "address": "0x56a7ddc4e848ebf43845854205ad71d5d5f72d3d",
          "topics": [
            "0x458f5fa412d0f69b08dd84872b0215675cc67bc1d5b6fd93300a1c3878b86196",
            "0x0000000000000000000000006807dc923806fe8fd134338eabca509979a7e0cb",
            "0x00000000000000000000000025ec457d1778b0e5316e7f38f3c22baf413f1a8c"
          ],
          "data": "0x000000000000000000000000000000000000000000000000000006caf71ddf0400000000000000000000000000000000000000000000000000000000cf0d62680000000000000000000000000000000000000000033b88ead9943f06a497cfa2",
          "blockHash": "0x3b9d294e4e4bad8bb4881cf8388194fe4f7bccf6c3d402222196994c92f6ca3c",
          "blockNumber": "0x26c9135",
          "transactionHash": "0xe57fe504245c339e1b43c0fbe751e4b17bebbc8bf3dad946f6246f8dde262435",
          "transactionIndex": "0x43",
          "logIndex": "0xc4",
          "removed": false
        },
        {
          "address": "0x6807dc923806fe8fd134338eabca509979a7e0cb",
          "topics": [
            "0xbfa21aa5d5f9a1f0120a95e7c0749f389863cbdbfff531aa7339077a5bc919de",
            "0x0000000000000000000000007130d2a12b9bcbfae4f2634d864a1ee1ce3ead9c"
          ],
          "data": "0x000000000000000000000000000000000000000000000000000006ca28107c9c",
          "blockHash": "0x3b9d294e4e4bad8bb4881cf8388194fe4f7bccf6c3d402222196994c92f6ca3c",
          "blockNumber": "0x26c9135",
          "transactionHash": "0xe57fe504245c339e1b43c0fbe751e4b17bebbc8bf3dad946f6246f8dde262435",
          "transactionIndex": "0x43",
          "logIndex": "0xc5",
          "removed": false
        },
        {
          "address": "0x00901a076785e0906d1028c7d6372d247bec7d61",
          "topics": [
            "0xddf252ad1be2c89b69c2b068fc378daa952ba7f163c4a11628f55a4df523b3ef",
            "0x0000000000000000000000000000000000000000000000000000000000000000",
            "0x00000000000000000000000025ec457d1778b0e5316e7f38f3c22baf413f1a8c"
          ],
          "data": "0x00000000000000000000000000000000000000000000000087035ec6bc4a0d1d",
          "blockHash": "0x3b9d294e4e4bad8bb4881cf8388194fe4f7bccf6c3d402222196994c92f6ca3c",
          "blockNumber": "0x26c9135",
          "transactionHash": "0xe57fe504245c339e1b43c0fbe751e4b17bebbc8bf3dad946f6246f8dde262435",
          "transactionIndex": "0x43",
          "logIndex": "0xc6",
          "removed": false
        },
        {
          "address": "0x00901a076785e0906d1028c7d6372d247bec7d61",
          "topics": [
            "0x458f5fa412d0f69b08dd84872b0215675cc67bc1d5b6fd93300a1c3878b86196",
            "0x0000000000000000000000006807dc923806fe8fd134338eabca509979a7e0cb",
            "0x00000000000000000000000025ec457d1778b0e5316e7f38f3c22baf413f1a8c"
          ],
          "data": "0x00000000000000000000000000000000000000000000000087035ec6bc4a0d1d000000000000000000000000000000000000000000000000031113236b346dba000000000000000000000000000000000000000003578f00fb88c7cdeb2b756a",
          "blockHash": "0x3b9d294e4e4bad8bb4881cf8388194fe4f7bccf6c3d402222196994c92f6ca3c",
          "blockNumber": "0x26c9135",
          "transactionHash": "0xe57fe504245c339e1b43c0fbe751e4b17bebbc8bf3dad946f6246f8dde262435",
          "transactionIndex": "0x43",
          "logIndex": "0xc7",
          "removed": false
        },
        {
          "address": "0x6807dc923806fe8fd134338eabca509979a7e0cb",
          "topics": [
            "0xbfa21aa5d5f9a1f0120a95e7c0749f389863cbdbfff531aa7339077a5bc919de",
            "0x0000000000000000000000008ac76a51cc950d9822d68b83fe1ad97b32cd580d"
          ],
          "data": "0x00000000000000000000000000000000000000000000000083f24ba351159f63",
          "blockHash": "0x3b9d294e4e4bad8bb4881cf8388194fe4f7bccf6c3d402222196994c92f6ca3c",
          "blockNumber": "0x26c9135",
          "transactionHash": "0xe57fe504245c339e1b43c0fbe751e4b17bebbc8bf3dad946f6246f8dde262435",
          "transactionIndex": "0x43",
          "logIndex": "0xc8",
          "removed": false
        },
        {
          "address": "0xa9251ca9de909cb71783723713b21e4233fbf1b1",
          "topics": [
            "0xddf252ad1be2c89b69c2b068fc378daa952ba7f163c4a11628f55a4df523b3ef",
            "0x0000000000000000000000000000000000000000000000000000000000000000",
            "0x00000000000000000000000025ec457d1778b0e5316e7f38f3c22baf413f1a8c"
          ],
          "data": "0x000000000000000000000000000000000000000000000001c7ae07e531e8f0d2",
          "blockHash": "0x3b9d294e4e4bad8bb4881cf8388194fe4f7bccf6c3d402222196994c92f6ca3c",
          "blockNumber": "0x26c9135",
          "transactionHash": "0xe57fe504245c339e1b43c0fbe751e4b17bebbc8bf3dad946f6246f8dde262435",
          "transactionIndex": "0x43",
          "logIndex": "0xc9",
          "removed": false
        },
        {
          "address": "0xa9251ca9de909cb71783723713b21e4233fbf1b1",
          "topics": [
            "0x458f5fa412d0f69b08dd84872b0215675cc67bc1d5b6fd93300a1c3878b86196",
            "0x0000000000000000000000006807dc923806fe8fd134338eabca509979a7e0cb",
            "0x00000000000000000000000025ec457d1778b0e5316e7f38f3c22baf413f1a8c"
          ],
          "data": "0x000000000000000000000000000000000000000000000001c7ae07e531e8f0d2000000000000000000000000000000000000000000000000093a4af774b15f6100000000000000000000000000000000000000000359b07e6e22d118e223e689",
          "blockHash": "0x3b9d294e4e4bad8bb4881cf8388194fe4f7bccf6c3d402222196994c92f6ca3c",
          "blockNumber": "0x26c9135",
          "transactionHash": "0xe57fe504245c339e1b43c0fbe751e4b17bebbc8bf3dad946f6246f8dde262435",
          "transactionIndex": "0x43",
          "logIndex": "0xca",
          "removed": false
        },
        {
          "address": "0x6807dc923806fe8fd134338eabca509979a7e0cb",
          "topics": [
            "0xbfa21aa5d5f9a1f0120a95e7c0749f389863cbdbfff531aa7339077a5bc919de",
            "0x00000000000000000000000055d398326f99059ff775485246999027b3197955"
          ],
          "data": "0x000000000000000000000000000000000000000000000001be73bcedbd379171",
          "blockHash": "0x3b9d294e4e4bad8bb4881cf8388194fe4f7bccf6c3d402222196994c92f6ca3c",
          "blockNumber": "0x26c9135",
          "transactionHash": "0xe57fe504245c339e1b43c0fbe751e4b17bebbc8bf3dad946f6246f8dde262435",
          "transactionIndex": "0x43",
          "logIndex": "0xcb",
          "removed": false
        },
        {
          "address": "0x75bd1a659bdc62e4c313950d44a2416fab43e785",
          "topics": [
            "0xddf252ad1be2c89b69c2b068fc378daa952ba7f163c4a11628f55a4df523b3ef",
            "0x0000000000000000000000000000000000000000000000000000000000000000",
            "0x00000000000000000000000025ec457d1778b0e5316e7f38f3c22baf413f1a8c"
          ],
          "data": "0x0000000000000000000000000000000000000000000000031be90e4232b033a6",
          "blockHash": "0x3b9d294e4e4bad8bb4881cf8388194fe4f7bccf6c3d402222196994c92f6ca3c",
          "blockNumber": "0x26c9135",
          "transactionHash": "0xe57fe504245c339e1b43c0fbe751e4b17bebbc8bf3dad946f6246f8dde262435",
          "transactionIndex": "0x43",
          "logIndex": "0xcc",
          "removed": false
        },
        {
          "address": "0x75bd1a659bdc62e4c313950d44a2416fab43e785",
          "topics": [
            "0x458f5fa412d0f69b08dd84872b0215675cc67bc1d5b6fd93300a1c3878b86196",
            "0x0000000000000000000000006807dc923806fe8fd134338eabca509979a7e0cb",
            "0x00000000000000000000000025ec457d1778b0e5316e7f38f3c22baf413f1a8c"
          ],
          "data": "0x0000000000000000000000000000000000000000000000031be90e4232b033a600000000000000000000000000000000000000000000000009c28357dcb9345800000000000000000000000000000000000000000359de960e865c5a4784f1cd",
          "blockHash": "0x3b9d294e4e4bad8bb4881cf8388194fe4f7bccf6c3d402222196994c92f6ca3c",
          "blockNumber": "0x26c9135",
          "transactionHash": "0xe57fe504245c339e1b43c0fbe751e4b17bebbc8bf3dad946f6246f8dde262435",
          "transactionIndex": "0x43",
          "logIndex": "0xcd",
          "removed": false
        },
        {
          "address": "0x6807dc923806fe8fd134338eabca509979a7e0cb",
          "topics": [
            "0xbfa21aa5d5f9a1f0120a95e7c0749f389863cbdbfff531aa7339077a5bc919de",
            "0x000000000000000000000000c5f0f7b66764f6ec8c8dff7ba683102295e16409"
          ],
          "data": "0x00000000000000000000000000000000000000000000000312268aea55f6ff4e",
          "blockHash": "0x3b9d294e4e4bad8bb4881cf8388194fe4f7bccf6c3d402222196994c92f6ca3c",
          "blockNumber": "0x26c9135",
          "transactionHash": "0xe57fe504245c339e1b43c0fbe751e4b17bebbc8bf3dad946f6246f8dde262435",
          "transactionIndex": "0x43",
          "logIndex": "0xce",
          "removed": false
        }
      ],
      "logsBloom": "0x00000404000000000000000000000000000000000000000000000000040000000000000000200080000008800004000010000000000000000000000000000000000000000000040000000008000005000000000000000000000000040000002020100008020000000100000000000800000040020000000008000010000000009080000000000000000800200000000000000000002400000000080024000000000000000000010000000000080000000000000000000000000000000000000002000002000004000000000030000000400000000000000000000000400020000000000100020000000002000000000000000000000000000000000000200000",
      "type": "0x0",
      "transactionHash": "0xe57fe504245c339e1b43c0fbe751e4b17bebbc8bf3dad946f6246f8dde262435",
      "transactionIndex": "0x43",
      "blockHash": "0x3b9d294e4e4bad8bb4881cf8388194fe4f7bccf6c3d402222196994c92f6ca3c",
      "blockNumber": "0x26c9135",
      "gasUsed": "0x4069f",
      "effectiveGasPrice": "0x3b9aca00",
      "from": "0x3cbded22f878afc8d39dcd744d3fe62086b76193",
      "to": "0x6807dc923806fe8fd134338eabca509979a7e0cb",
      "contractAddress": null
    }
  ],
  "libraries": [],
  "pending": [],
  "returns": {},
  "timestamp": 1721573620,
  "chain": 56,
  "commit": "36de58b"
}