{
  "transactions": [
    {
      "hash": "0xd4baaad93d0ce6d68650132aac18950d5aaf23ea6bb071d1a877afd1d113cb45",
      "transactionType": "CALL",
      "contractName": null,
      "contractAddress": "0xb50201558b00496a145fe76f7424749556e326d8",
      "function": "mintToTreasury(address[])",
      "arguments": [
        "[0x6A023CCd1ff6F2045C3309768eAd9E68F978f6e1, 0x6C76971f98945AE98dD7d4DFcA8711ebea946eA6, 0x9C58BAcC331c9aa871AFD802DB6379a98e80CEdb, 0xDDAfbb505ad214D7b80b1f830fcCc89B60fb7A83, 0xe91D153E0b41518A2Ce8Dd3D7944Fa863463a97d, 0xcB444e90D8198415266c6a2724b7900fb12FC56E, 0xaf204776c7245bF4147c2612BF6e5972Ee483701]"
      ],
      "transaction": {
        "from": "0x3cbded22f878afc8d39dcd744d3fe62086b76193",
        "to": "0xb50201558b00496a145fe76f7424749556e326d8",
        "gas": "0x6b88c",
        "value": "0x0",
        "input": "0x9cd19996000000000000000000000000000000000000000000000000000000000000002000000000000000000000000000000000000000000000000000000000000000070000000000000000000000006a023ccd1ff6f2045c3309768ead9e68f978f6e10000000000000000000000006c76971f98945ae98dd7d4dfca8711ebea946ea60000000000000000000000009c58bacc331c9aa871afd802db6379a98e80cedb000000000000000000000000ddafbb505ad214d7b80b1f830fccc89b60fb7a83000000000000000000000000e91d153e0b41518a2ce8dd3d7944fa863463a97d000000000000000000000000cb444e90d8198415266c6a2724b7900fb12fc56e000000000000000000000000af204776c7245bf4147c2612bf6e5972ee483701",
        "nonce": "0x0",
        "chainId": "0x64"
      },
      "additionalContracts": [],
      "isFixedGasLimit": false
    }
  ],
  "receipts": [
    {
      "status": "0x1",
      "cumulativeGasUsed": "0xf3ab4",
      "logs": [
        {
          "address": "0xa818f1b57c201e092c4a2017a91815034326efd1",
          "topics": [
            "0xddf252ad1be2c89b69c2b068fc378daa952ba7f163c4a11628f55a4df523b3ef",
            "0x0000000000000000000000000000000000000000000000000000000000000000",
            "0x0000000000000000000000003e652e97ff339b73421f824f5b03d75b62f1fb51"
          ],
          "data": "0x0000000000000000000000000000000000000000000000000032db565c3a05f9",
          "blockHash": "0x55212b05d22d4fb7f623fc31cc051a5bbde749fa62d332d5ecf880fff9bf7b0b",
          "blockNumber": "0x21747aa",
          "transactionHash": "0xd4baaad93d0ce6d68650132aac18950d5aaf23ea6bb071d1a877afd1d113cb45",
          "transactionIndex": "0x3",
          "logIndex": "0x13",
          "removed": false
        },
        {
          "address": "0xa818f1b57c201e092c4a2017a91815034326efd1",
          "topics": [
            "0x458f5fa412d0f69b08dd84872b0215675cc67bc1d5b6fd93300a1c3878b86196",
            "0x000000000000000000000000b50201558b00496a145fe76f7424749556e326d8",
            "0x0000000000000000000000003e652e97ff339b73421f824f5b03d75b62f1fb51"
          ],
          "data": "0x0000000000000000000000000000000000000000000000000032db565c3a05f900000000000000000000000000000000000000000000000000003a03377186ac0000000000000000000000000000000000000000033f3215bca008f1724494b9",
          "blockHash": "0x55212b05d22d4fb7f623fc31cc051a5bbde749fa62d332d5ecf880fff9bf7b0b",
          "blockNumber": "0x21747aa",
          "transactionHash": "0xd4baaad93d0ce6d68650132aac18950d5aaf23ea6bb071d1a877afd1d113cb45",
          "transactionIndex": "0x3",
          "logIndex": "0x14",
          "removed": false
        },
        {
          "address": "0xb50201558b00496a145fe76f7424749556e326d8",
          "topics": [
            "0xbfa21aa5d5f9a1f0120a95e7c0749f389863cbdbfff531aa7339077a5bc919de",
            "0x0000000000000000000000006a023ccd1ff6f2045c3309768ead9e68f978f6e1"
          ],
          "data": "0x0000000000000000000000000000000000000000000000000032a15324c87f4d",
          "blockHash": "0x55212b05d22d4fb7f623fc31cc051a5bbde749fa62d332d5ecf880fff9bf7b0b",
          "blockNumber": "0x21747aa",
          "transactionHash": "0xd4baaad93d0ce6d68650132aac18950d5aaf23ea6bb071d1a877afd1d113cb45",
          "transactionIndex": "0x3",
          "logIndex": "0x15",
          "removed": false
        },
        {
          "address": "0x23e4e76d01b2002be436ce8d6044b0aa2f68b68a",
          "topics": [
            "0xddf252ad1be2c89b69c2b068fc378daa952ba7f163c4a11628f55a4df523b3ef",
            "0x0000000000000000000000000000000000000000000000000000000000000000",
            "0x0000000000000000000000003e652e97ff339b73421f824f5b03d75b62f1fb51"
          ],
          "data": "0x0000000000000000000000000000000000000000000000000003dad0e9f8a6cf",
          "blockHash": "0x55212b05d22d4fb7f623fc31cc051a5bbde749fa62d332d5ecf880fff9bf7b0b",
          "blockNumber": "0x21747aa",
          "transactionHash": "0xd4baaad93d0ce6d68650132aac18950d5aaf23ea6bb071d1a877afd1d113cb45",
          "transactionIndex": "0x3",
          "logIndex": "0x16",
          "removed": false
        },
        {
          "address": "0x23e4e76d01b2002be436ce8d6044b0aa2f68b68a",
          "topics": [
            "0x458f5fa412d0f69b08dd84872b0215675cc67bc1d5b6fd93300a1c3878b86196",
            "0x000000000000000000000000b50201558b00496a145fe76f7424749556e326d8",
            "0x0000000000000000000000003e652e97ff339b73421f824f5b03d75b62f1fb51"
          ],
          "data": "0x0000000000000000000000000000000000000000000000000003dad0e9f8a6cf00000000000000000000000000000000000000000000000000000014fbb300fd0000000000000000000000000000000000000000033b313f8dc2cd8f6c6f408c",
          "blockHash": "0x55212b05d22d4fb7f623fc31cc051a5bbde749fa62d332d5ecf880fff9bf7b0b",
          "blockNumber": "0x21747aa",
          "transactionHash": "0xd4baaad93d0ce6d68650132aac18950d5aaf23ea6bb071d1a877afd1d113cb45",
          "transactionIndex": "0x3",
          "logIndex": "0x17",
          "removed": false
        },
        {
          "address": "0xb50201558b00496a145fe76f7424749556e326d8",
          "topics": [
            "0xbfa21aa5d5f9a1f0120a95e7c0749f389863cbdbfff531aa7339077a5bc919de",
            "0x0000000000000000000000006c76971f98945ae98dd7d4dfca8711ebea946ea6"
          ],
          "data": "0x0000000000000000000000000000000000000000000000000003dabbee45a5d2",
          "blockHash": "0x55212b05d22d4fb7f623fc31cc051a5bbde749fa62d332d5ecf880fff9bf7b0b",
          "blockNumber": "0x21747aa",
          "transactionHash": "0xd4baaad93d0ce6d68650132aac18950d5aaf23ea6bb071d1a877afd1d113cb45",
          "transactionIndex": "0x3",
          "logIndex": "0x18",
          "removed": false
        },
        {
          "address": "0xa1fa064a85266e2ca82dee5c5ccec84df445760e",
          "topics": [
            "0xddf252ad1be2c89b69c2b068fc378daa952ba7f163c4a11628f55a4df523b3ef",
            "0x0000000000000000000000000000000000000000000000000000000000000000",
            "0x0000000000000000000000003e652e97ff339b73421f824f5b03d75b62f1fb51"
          ],
          "data": "0x00000000000000000000000000000000000000000000000000d2829fb8a5b15f",
          "blockHash": "0x55212b05d22d4fb7f623fc31cc051a5bbde749fa62d332d5ecf880fff9bf7b0b",
          "blockNumber": "0x21747aa",
          "transactionHash": "0xd4baaad93d0ce6d68650132aac18950d5aaf23ea6bb071d1a877afd1d113cb45",
          "transactionIndex": "0x3",
          "logIndex": "0x19",
          "removed": false
        },
        {
          "address": "0xa1fa064a85266e2ca82dee5c5ccec84df445760e",
          "topics": [
            "0x458f5fa412d0f69b08dd84872b0215675cc67bc1d5b6fd93300a1c3878b86196",
            "0x000000000000000000000000b50201558b00496a145fe76f7424749556e326d8",
            "0x0000000000000000000000003e652e97ff339b73421f824f5b03d75b62f1fb51"
          ],
          "data": "0x00000000000000000000000000000000000000000000000000d2829fb8a5b15f000000000000000000000000000000000000000000000000000007f6c67fc1760000000000000000000000000000000000000000033b4d0e6be67ed7f8df0cc5",
          "blockHash": "0x55212b05d22d4fb7f623fc31cc051a5bbde749fa62d332d5ecf880fff9bf7b0b",
          "blockNumber": "0x21747aa",
          "transactionHash": "0xd4baaad93d0ce6d68650132aac18950d5aaf23ea6bb071d1a877afd1d113cb45",
          "transactionIndex": "0x3",
          "logIndex": "0x1a",
          "removed": false
        },
        {
          "address": "0xb50201558b00496a145fe76f7424749556e326d8",
          "topics": [
            "0xbfa21aa5d5f9a1f0120a95e7c0749f389863cbdbfff531aa7339077a5bc919de",
            "0x0000000000000000000000009c58bacc331c9aa871afd802db6379a98e80cedb"
          ],
          "data": "0x00000000000000000000000000000000000000000000000000d27aa8f225efe9",
          "blockHash": "0x55212b05d22d4fb7f623fc31cc051a5bbde749fa62d332d5ecf880fff9bf7b0b",
          "blockNumber": "0x21747aa",
          "transactionHash": "0xd4baaad93d0ce6d68650132aac18950d5aaf23ea6bb071d1a877afd1d113cb45",
          "transactionIndex": "0x3",
          "logIndex": "0x1b",
          "removed": false
        },
        {
          "address": "0xc6b7aca6de8a6044e0e32d0c841a89244a10d284",
          "topics": [
            "0xddf252ad1be2c89b69c2b068fc378daa952ba7f163c4a11628f55a4df523b3ef",
            "0x0000000000000000000000000000000000000000000000000000000000000000",
            "0x0000000000000000000000003e652e97ff339b73421f824f5b03d75b62f1fb51"
          ],
          "data": "0x000000000000000000000000000000000000000000000000000000000e616a98",
          "blockHash": "0x55212b05d22d4fb7f623fc31cc051a5bbde749fa62d332d5ecf880fff9bf7b0b",
          "blockNumber": "0x21747aa",
          "transactionHash": "0xd4baaad93d0ce6d68650132aac18950d5aaf23ea6bb071d1a877afd1d113cb45",
          "transactionIndex": "0x3",
          "logIndex": "0x1c",
          "removed": false
        },
        {
          "address": "0xc6b7aca6de8a6044e0e32d0c841a89244a10d284",
          "topics": [
            "0x458f5fa412d0f69b08dd84872b0215675cc67bc1d5b6fd93300a1c3878b86196",
            "0x000000000000000000000000b50201558b00496a145fe76f7424749556e326d8",
            "0x0000000000000000000000003e652e97ff339b73421f824f5b03d75b62f1fb51"
          ],
          "data": "0x000000000000000000000000000000000000000000000000000000000e616a9800000000000000000000000000000000000000000000000000000000006804d6000000000000000000000000000000000000000003583a3381cad6cb59092f36",
          "blockHash": "0x55212b05d22d4fb7f623fc31cc051a5bbde749fa62d332d5ecf880fff9bf7b0b",
          "blockNumber": "0x21747aa",
          "transactionHash": "0xd4baaad93d0ce6d68650132aac18950d5aaf23ea6bb071d1a877afd1d113cb45",
          "transactionIndex": "0x3",
          "logIndex": "0x1d",
          "removed": false
        },
        {
          "address": "0xb50201558b00496a145fe76f7424749556e326d8",
          "topics": [
            "0xbfa21aa5d5f9a1f0120a95e7c0749f389863cbdbfff531aa7339077a5bc919de",
            "0x000000000000000000000000ddafbb505ad214d7b80b1f830fccc89b60fb7a83"
          ],
          "data": "0x000000000000000000000000000000000000000000000000000000000df965c2",
          "blockHash": "0x55212b05d22d4fb7f623fc31cc051a5bbde749fa62d332d5ecf880fff9bf7b0b",
          "blockNumber": "0x21747aa",
          "transactionHash": "0xd4baaad93d0ce6d68650132aac18950d5aaf23ea6bb071d1a877afd1d113cb45",
          "transactionIndex": "0x3",
          "logIndex": "0x1e",
          "removed": false
        },
        {
          "address": "0xd0dd6cef72143e22cced4867eb0d5f2328715533",
          "topics": [
            "0xddf252ad1be2c89b69c2b068fc378daa952ba7f163c4a11628f55a4df523b3ef",
            "0x0000000000000000000000000000000000000000000000000000000000000000",
            "0x0000000000000000000000003e652e97ff339b73421f824f5b03d75b62f1fb51"
          ],
          "data": "0x00000000000000000000000000000000000000000000004301b59a3197f9e7a4",
          "blockHash": "0x55212b05d22d4fb7f623fc31cc051a5bbde749fa62d332d5ecf880fff9bf7b0b",
          "blockNumber": "0x21747aa",
          "transactionHash": "0xd4baaad93d0ce6d68650132aac18950d5aaf23ea6bb071d1a877afd1d113cb45",
          "transactionIndex": "0x3",
          "logIndex": "0x1f",
          "removed": false
        },
        {
          "address": "0xd0dd6cef72143e22cced4867eb0d5f2328715533",
          "topics": [
            "0x458f5fa412d0f69b08dd84872b0215675cc67bc1d5b6fd93300a1c3878b86196",
            "0x000000000000000000000000b50201558b00496a145fe76f7424749556e326d8",
            "0x0000000000000000000000003e652e97ff339b73421f824f5b03d75b62f1fb51"
          ],
          "data": "0x00000000000000000000000000000000000000000000004301b59a3197f9e7a4000000000000000000000000000000000000000000000001711656da85a8a3c300000000000000000000000000000000000000000358a1c493514e08c870b6ef",
          "blockHash": "0x55212b05d22d4fb7f623fc31cc051a5bbde749fa62d332d5ecf880fff9bf7b0b",
          "blockNumber": "0x21747aa",
          "transactionHash": "0xd4baaad93d0ce6d68650132aac18950d5aaf23ea6bb071d1a877afd1d113cb45",
          "transactionIndex": "0x3",
          "logIndex": "0x20",
          "removed": false
        },
        {
          "address": "0xb50201558b00496a145fe76f7424749556e326d8",
          "topics": [
            "0xbfa21aa5d5f9a1f0120a95e7c0749f389863cbdbfff531aa7339077a5bc919de",
            "0x000000000000000000000000e91d153e0b41518a2ce8dd3d7944fa863463a97d"
          ],
          "data": "0x000000000000000000000000000000000000000000000041909f4357125143e1",
          "blockHash": "0x55212b05d22d4fb7f623fc31cc051a5bbde749fa62d332d5ecf880fff9bf7b0b",
          "blockNumber": "0x21747aa",
          "transactionHash": "0xd4baaad93d0ce6d68650132aac18950d5aaf23ea6bb071d1a877afd1d113cb45",
          "transactionIndex": "0x3",
          "logIndex": "0x21",
          "removed": false
        },
        {
          "address": "0xedbc7449a9b594ca4e053d9737ec5dc4cbccbfb2",
          "topics": [
            "0xddf252ad1be2c89b69c2b068fc378daa952ba7f163c4a11628f55a4df523b3ef",
            "0x0000000000000000000000000000000000000000000000000000000000000000",
            "0x0000000000000000000000003e652e97ff339b73421f824f5b03d75b62f1fb51"
          ],
          "data": "0x000000000000000000000000000000000000000000000006a755daafacf2033d",
          "blockHash": "0x55212b05d22d4fb7f623fc31cc051a5bbde749fa62d332d5ecf880fff9bf7b0b",
          "blockNumber": "0x21747aa",
          "transactionHash": "0xd4baaad93d0ce6d68650132aac18950d5aaf23ea6bb071d1a877afd1d113cb45",
          "transactionIndex": "0x3",
          "logIndex": "0x22",
          "removed": false
        },
        {
          "address": "0xedbc7449a9b594ca4e053d9737ec5dc4cbccbfb2",
          "topics": [
            "0x458f5fa412d0f69b08dd84872b0215675cc67bc1d5b6fd93300a1c3878b86196",
            "0x000000000000000000000000b50201558b00496a145fe76f7424749556e326d8",
            "0x0000000000000000000000003e652e97ff339b73421f824f5b03d75b62f1fb51"
          ],
          "data": "0x000000000000000000000000000000000000000000000006a755daafacf2033d0000000000000000000000000000000000000000000000000e4f442c54e97ff000000000000000000000000000000000000000000348a9a36bab10422573d733",
          "blockHash": "0x55212b05d22d4fb7f623fc31cc051a5bbde749fa62d332d5ecf880fff9bf7b0b",
          "blockNumber": "0x21747aa",
          "transactionHash": "0xd4baaad93d0ce6d68650132aac18950d5aaf23ea6bb071d1a877afd1d113cb45",
          "transactionIndex": "0x3",
          "logIndex": "0x23",
          "removed": false
        },
        {
          "address": "0xb50201558b00496a145fe76f7424749556e326d8",
          "topics": [
            "0xbfa21aa5d5f9a1f0120a95e7c0749f389863cbdbfff531aa7339077a5bc919de",
            "0x000000000000000000000000cb444e90d8198415266c6a2724b7900fb12fc56e"
          ],
          "data": "0x000000000000000000000000000000000000000000000006990696835808834d",
          "blockHash": "0x55212b05d22d4fb7f623fc31cc051a5bbde749fa62d332d5ecf880fff9bf7b0b",
          "blockNumber": "0x21747aa",
          "transactionHash": "0xd4baaad93d0ce6d68650132aac18950d5aaf23ea6bb071d1a877afd1d113cb45",
          "transactionIndex": "0x3",
          "logIndex": "0x24",
          "removed": false
        }
      ],
      "logsBloom": "0x01000400000110000000000400400000000000000004000000000000000001000000000000280000002000000004001004010000800200010000000000010000000004000000000000000008000090000000000010002000100000040000000000000400020000000100000000000800000000100000080000000010000000000000204000000000000000000000000000020000000001000000000080000100000000000000000000004000000000000000000000000000000100000000000803000002000000000080000000400000400000000200000000000000000020000000000020000000000000000000000000000000000802002000000000000020",
      "type": "0x2",
      "transactionHash": "0xd4baaad93d0ce6d68650132aac18950d5aaf23ea6bb071d1a877afd1d113cb45",
      "transactionIndex": "0x3",
      "blockHash": "0x55212b05d22d4fb7f623fc31cc051a5bbde749fa62d332d5ecf880fff9bf7b0b",
      "blockNumber": "0x21747aa",
      "gasUsed": "0x49872",
      "effectiveGasPrice": "0x7a7e9311",
      "from": "0x3cbded22f878afc8d39dcd744d3fe62086b76193",
      "to": "0xb50201558b00496a145fe76f7424749556e326d8",
      "contractAddress": null
    }
  ],
  "libraries": [],
  "pending": [],
  "returns": {},
  "timestamp": 1721573645,
  "chain": 100,
  "commit": "36de58b"
}