{
  "transactions": [
    {
      "hash": "0x2d5d5fcb22e8ca097b95141cb92f69e16901bcee5f1097933ec09def024dd6b7",
      "transactionType": "CALL",
      "contractName": null,
      "contractAddress": "0x794a61358d6845594f94dc1db02a252b5b4814ad",
      "function": "mintToTreasury(address[])",
      "arguments": [
        "[0xDA10009cBd5D07dd0CeCc66161FC93D7c9000da1, 0xf97f4df75117a78c1A5a0DBb814Af92458539FB4, 0xFF970A61A04b1cA14834A43f5dE4533eBDDB5CC8, 0x2f2a2543B76A4166549F7aaB2e75Bef0aefC5B0f, 0x82aF49447D8a07e3bd95BD0d56f35241523fBab1, 0xFd086bC7CD5C481DCC9C85ebE478A1C0b69FCbb9, 0xba5DdD1f9d7F570dc94a51479a000E3BCE967196, 0xD22a58f79e9481D1a88e00c343885A588b34b68B, 0x5979D7b546E38E414F7E9822514be443A4800529, 0x3F56e0c36d275367b8C502090EDF38289b3dEa0d, 0xEC70Dcb4A1EFa46b8F2D97C310C9c4790ba5ffA8, 0x93b346b6BC2548dA6A1E7d98E9a421B42541425b, 0xaf88d065e77c8cC2239327C5EDb3A432268e5831, 0x17FC002b466eEc40DaE837Fc4bE5c67993ddBd6F, 0x912CE59144191C1204E64559FE8253a0e49E6548, 0x35751007a407ca6FEFfE80b3cB397736D2cf4dbe, 0x7dfF72693f6A4149b17e7C6314655f6A9F7c8B33]"
      ],
      "transaction": {
        "from": "0x3cbded22f878afc8d39dcd744d3fe62086b76193",
        "to": "0x794a61358d6845594f94dc1db02a252b5b4814ad",
        "gas": "0x10937c",
        "value": "0x0",
        "input": "0x9cd1999600000000000000000000000000000000000000000000000000000000000000200000000000000000000000000000000000000000000000000000000000000011000000000000000000000000da10009cbd5d07dd0cecc66161fc93d7c9000da1000000000000000000000000f97f4df75117a78c1a5a0dbb814af92458539fb4000000000000000000000000ff970a61a04b1ca14834a43f5de4533ebddb5cc80000000000000000000000002f2a2543b76a4166549f7aab2e75bef0aefc5b0f00000000000000000000000082af49447d8a07e3bd95bd0d56f35241523fbab1000000000000000000000000fd086bc7cd5c481dcc9c85ebe478a1c0b69fcbb9000000000000000000000000ba5ddd1f9d7f570dc94a51479a000e3bce967196000000000000000000000000d22a58f79e9481d1a88e00c343885a588b34b68b0000000000000000000000005979d7b546e38e414f7e9822514be443a48005290000000000000000000000003f56e0c36d275367b8c502090edf38289b3dea0d000000000000000000000000ec70dcb4a1efa46b8f2d97c310c9c4790ba5ffa800000000000000000000000093b346b6bc2548da6a1e7d98e9a421b42541425b000000000000000000000000af88d065e77c8cc2239327c5edb3a432268e583100000000000000000000000017fc002b466eec40dae837fc4be5c67993ddbd6f000000000000000000000000912ce59144191c1204e64559fe8253a0e49e654800000000000000000000000035751007a407ca6feffe80b3cb397736d2cf4dbe0000000000000000000000007dff72693f6a4149b17e7c6314655f6a9f7c8b33",
        "nonce": "0x2",
        "chainId": "0xa4b1"
      },
      "additionalContracts": [],
      "isFixedGasLimit": false
    }
  ],
  "receipts": [
    {
      "status": "0x1",
      "cumulativeGasUsed": "0xed829",
      "logs": [
        {
          "address": "0x82e64f49ed5ec1bc6e43dad4fc8af9bb3a2312ee",
          "topics": [
            "0xddf252ad1be2c89b69c2b068fc378daa952ba7f163c4a11628f55a4df523b3ef",
            "0x0000000000000000000000000000000000000000000000000000000000000000",
            "0x000000000000000000000000053d55f9b5af8694c503eb288a1b7e552f590710"
          ],
          "data": "0x000000000000000000000000000000000000000000000005a8753a1f3d9d3e62",
          "blockHash": "0x051fa845af66b02a0a9056f525f8935ea62e4ba32e48937ba7866b38b18eb8fc",
          "blockNumber": "0xdfb15bb",
          "transactionHash": "0x2d5d5fcb22e8ca097b95141cb92f69e16901bcee5f1097933ec09def024dd6b7",
          "transactionIndex": "0x4",
          "logIndex": "0x4",
          "removed": false
        },
        {
          "address": "0x82e64f49ed5ec1bc6e43dad4fc8af9bb3a2312ee",
          "topics": [
            "0x458f5fa412d0f69b08dd84872b0215675cc67bc1d5b6fd93300a1c3878b86196",
            "0x000000000000000000000000794a61358d6845594f94dc1db02a252b5b4814ad",
            "0x000000000000000000000000053d55f9b5af8694c503eb288a1b7e552f590710"
          ],
          "data": "0x000000000000000000000000000000000000000000000005a8753a1f3d9d3e6200000000000000000000000000000000000000000000000033261b947812967c0000000000000000000000000000000000000000038cd58be110df9cb3e949bc",
          "blockHash": "0x051fa845af66b02a0a9056f525f8935ea62e4ba32e48937ba7866b38b18eb8fc",
          "blockNumber": "0xdfb15bb",
          "transactionHash": "0x2d5d5fcb22e8ca097b95141cb92f69e16901bcee5f1097933ec09def024dd6b7",
          "transactionIndex": "0x4",
          "logIndex": "0x5",
          "removed": false
        },
        {
          "address": "0x794a61358d6845594f94dc1db02a252b5b4814ad",
          "topics": [
            "0xbfa21aa5d5f9a1f0120a95e7c0749f389863cbdbfff531aa7339077a5bc919de",
            "0x000000000000000000000000da10009cbd5d07dd0cecc66161fc93d7c9000da1"
          ],
          "data": "0x000000000000000000000000000000000000000000000005754f1e8ac58aa7e6",
          "blockHash": "0x051fa845af66b02a0a9056f525f8935ea62e4ba32e48937ba7866b38b18eb8fc",
          "blockNumber": "0xdfb15bb",
          "transactionHash": "0x2d5d5fcb22e8ca097b95141cb92f69e16901bcee5f1097933ec09def024dd6b7",
          "transactionIndex": "0x4",
          "logIndex": "0x6",
          "removed": false
        },
        {
          "address": "0x191c10aa4af7c30e871e70c95db0e4eb77237530",
          "topics": [
            "0xddf252ad1be2c89b69c2b068fc378daa952ba7f163c4a11628f55a4df523b3ef",
            "0x0000000000000000000000000000000000000000000000000000000000000000",
            "0x000000000000000000000000053d55f9b5af8694c503eb288a1b7e552f590710"
          ],
          "data": "0x000000000000000000000000000000000000000000000000007d96871aeba272",
          "blockHash": "0x051fa845af66b02a0a9056f525f8935ea62e4ba32e48937ba7866b38b18eb8fc",
          "blockNumber": "0xdfb15bb",
          "transactionHash": "0x2d5d5fcb22e8ca097b95141cb92f69e16901bcee5f1097933ec09def024dd6b7",
          "transactionIndex": "0x4",
          "logIndex": "0x7",
          "removed": false
        },
        {
          "address": "0x191c10aa4af7c30e871e70c95db0e4eb77237530",
          "topics": [
            "0x458f5fa412d0f69b08dd84872b0215675cc67bc1d5b6fd93300a1c3878b86196",
            "0x000000000000000000000000794a61358d6845594f94dc1db02a252b5b4814ad",
            "0x000000000000000000000000053d55f9b5af8694c503eb288a1b7e552f590710"
          ],
          "data": "0x000000000000000000000000000000000000000000000000007d96871aeba2720000000000000000000000000000000000000000000000000000665fc0a5c2640000000000000000000000000000000000000000033e6b6c7dfc7474a4b7a3ef",
          "blockHash": "0x051fa845af66b02a0a9056f525f8935ea62e4ba32e48937ba7866b38b18eb8fc",
          "blockNumber": "0xdfb15bb",
          "transactionHash": "0x2d5d5fcb22e8ca097b95141cb92f69e16901bcee5f1097933ec09def024dd6b7",
          "transactionIndex": "0x4",
          "logIndex": "0x8",
          "removed": false
        },
        {
          "address": "0x794a61358d6845594f94dc1db02a252b5b4814ad",
          "topics": [
            "0xbfa21aa5d5f9a1f0120a95e7c0749f389863cbdbfff531aa7339077a5bc919de",
            "0x000000000000000000000000f97f4df75117a78c1a5a0dbb814af92458539fb4"
          ],
          "data": "0x000000000000000000000000000000000000000000000000007d30275a45e00e",
          "blockHash": "0x051fa845af66b02a0a9056f525f8935ea62e4ba32e48937ba7866b38b18eb8fc",
          "blockNumber": "0xdfb15bb",
          "transactionHash": "0x2d5d5fcb22e8ca097b95141cb92f69e16901bcee5f1097933ec09def024dd6b7",
          "transactionIndex": "0x4",
          "logIndex": "0x9",
          "removed": false
        },
        {
          "address": "0x625e7708f30ca75bfd92586e17077590c60eb4cd",
          "topics": [
            "0xddf252ad1be2c89b69c2b068fc378daa952ba7f163c4a11628f55a4df523b3ef",
            "0x0000000000000000000000000000000000000000000000000000000000000000",
            "0x000000000000000000000000053d55f9b5af8694c503eb288a1b7e552f590710"
          ],
          "data": "0x00000000000000000000000000000000000000000000000000000000061da4a3",
          "blockHash": "0x051fa845af66b02a0a9056f525f8935ea62e4ba32e48937ba7866b38b18eb8fc",
          "blockNumber": "0xdfb15bb",
          "transactionHash": "0x2d5d5fcb22e8ca097b95141cb92f69e16901bcee5f1097933ec09def024dd6b7",
          "transactionIndex": "0x4",
          "logIndex": "0xa",
          "removed": false
        },
        {
          "address": "0x625e7708f30ca75bfd92586e17077590c60eb4cd",
          "topics": [
            "0x458f5fa412d0f69b08dd84872b0215675cc67bc1d5b6fd93300a1c3878b86196",
            "0x000000000000000000000000794a61358d6845594f94dc1db02a252b5b4814ad",
            "0x000000000000000000000000053d55f9b5af8694c503eb288a1b7e552f590710"
          ],
          "data": "0x00000000000000000000000000000000000000000000000000000000061da4a300000000000000000000000000000000000000000000000000000000008b0241000000000000000000000000000000000000000003894972d8a7b4183112827d",
          "blockHash": "0x051fa845af66b02a0a9056f525f8935ea62e4ba32e48937ba7866b38b18eb8fc",
          "blockNumber": "0xdfb15bb",
          "transactionHash": "0x2d5d5fcb22e8ca097b95141cb92f69e16901bcee5f1097933ec09def024dd6b7",
          "transactionIndex": "0x4",
          "logIndex": "0xb",
          "removed": false
        },
        {
          "address": "0x794a61358d6845594f94dc1db02a252b5b4814ad",
          "topics": [
            "0xbfa21aa5d5f9a1f0120a95e7c0749f389863cbdbfff531aa7339077a5bc919de",
            "0x000000000000000000000000ff970a61a04b1ca14834a43f5de4533ebddb5cc8"
          ],
          "data": "0x000000000000000000000000000000000000000000000000000000000592a262",
          "blockHash": "0x051fa845af66b02a0a9056f525f8935ea62e4ba32e48937ba7866b38b18eb8fc",
          "blockNumber": "0xdfb15bb",
          "transactionHash": "0x2d5d5fcb22e8ca097b95141cb92f69e16901bcee5f1097933ec09def024dd6b7",
          "transactionIndex": "0x4",
          "logIndex": "0xc",
          "removed": false
        },
        {
          "address": "0x078f358208685046a11c85e8ad32895ded33a249",
          "topics": [
            "0xddf252ad1be2c89b69c2b068fc378daa952ba7f163c4a11628f55a4df523b3ef",
            "0x0000000000000000000000000000000000000000000000000000000000000000",
            "0x000000000000000000000000053d55f9b5af8694c503eb288a1b7e552f590710"
          ],
          "data": "0x0000000000000000000000000000000000000000000000000000000000003ef5",
          "blockHash": "0x051fa845af66b02a0a9056f525f8935ea62e4ba32e48937ba7866b38b18eb8fc",
          "blockNumber": "0xdfb15bb",
          "transactionHash": "0x2d5d5fcb22e8ca097b95141cb92f69e16901bcee5f1097933ec09def024dd6b7",
          "transactionIndex": "0x4",
          "logIndex": "0xd",
          "removed": false
        },
        {
          "address": "0x078f358208685046a11c85e8ad32895ded33a249",
          "topics": [
            "0x458f5fa412d0f69b08dd84872b0215675cc67bc1d5b6fd93300a1c3878b86196",
            "0x000000000000000000000000794a61358d6845594f94dc1db02a252b5b4814ad",
            "0x000000000000000000000000053d55f9b5af8694c503eb288a1b7e552f590710"
          ],
          "data": "0x0000000000000000000000000000000000000000000000000000000000003ef500000000000000000000000000000000000000000000000000000000000000190000000000000000000000000000000000000000034025b1083461bf5db6e440",
          "blockHash": "0x051fa845af66b02a0a9056f525f8935ea62e4ba32e48937ba7866b38b18eb8fc",
          "blockNumber": "0xdfb15bb",
          "transactionHash": "0x2d5d5fcb22e8ca097b95141cb92f69e16901bcee5f1097933ec09def024dd6b7",
          "transactionIndex": "0x4",
          "logIndex": "0xe",
          "removed": false
        },
        {
          "address": "0x794a61358d6845594f94dc1db02a252b5b4814ad",
          "topics": [
            "0xbfa21aa5d5f9a1f0120a95e7c0749f389863cbdbfff531aa7339077a5bc919de",
            "0x0000000000000000000000002f2a2543b76a4166549f7aab2e75bef0aefc5b0f"
          ],
          "data": "0x0000000000000000000000000000000000000000000000000000000000003edc",
          "blockHash": "0x051fa845af66b02a0a9056f525f8935ea62e4ba32e48937ba7866b38b18eb8fc",
          "blockNumber": "0xdfb15bb",
          "transactionHash": "0x2d5d5fcb22e8ca097b95141cb92f69e16901bcee5f1097933ec09def024dd6b7",
          "transactionIndex": "0x4",
          "logIndex": "0xf",
          "removed": false
        },
        {
          "address": "0xe50fa9b3c56ffb159cb0fca61f5c9d750e8128c8",
          "topics": [
            "0xddf252ad1be2c89b69c2b068fc378daa952ba7f163c4a11628f55a4df523b3ef",
            "0x0000000000000000000000000000000000000000000000000000000000000000",
            "0x000000000000000000000000053d55f9b5af8694c503eb288a1b7e552f590710"
          ],
          "data": "0x00000000000000000000000000000000000000000000000002451bb4af593cfe",
          "blockHash": "0x051fa845af66b02a0a9056f525f8935ea62e4ba32e48937ba7866b38b18eb8fc",
          "blockNumber": "0xdfb15bb",
          "transactionHash": "0x2d5d5fcb22e8ca097b95141cb92f69e16901bcee5f1097933ec09def024dd6b7",
          "transactionIndex": "0x4",
          "logIndex": "0x10",
          "removed": false
        },
        {
          "address": "0xe50fa9b3c56ffb159cb0fca61f5c9d750e8128c8",
          "topics": [
            "0x458f5fa412d0f69b08dd84872b0215675cc67bc1d5b6fd93300a1c3878b86196",
            "0x000000000000000000000000794a61358d6845594f94dc1db02a252b5b4814ad",
            "0x000000000000000000000000053d55f9b5af8694c503eb288a1b7e552f590710"
          ],
          "data": "0x00000000000000000000000000000000000000000000000002451bb4af593cfe0000000000000000000000000000000000000000000000000006c95f32fc7a810000000000000000000000000000000000000000035295765e265ce37a10886a",
          "blockHash": "0x051fa845af66b02a0a9056f525f8935ea62e4ba32e48937ba7866b38b18eb8fc",
          "blockNumber": "0xdfb15bb",
          "transactionHash": "0x2d5d5fcb22e8ca097b95141cb92f69e16901bcee5f1097933ec09def024dd6b7",
          "transactionIndex": "0x4",
          "logIndex": "0x11",
          "removed": false
        },
        {
          "address": "0x794a61358d6845594f94dc1db02a252b5b4814ad",
          "topics": [
            "0xbfa21aa5d5f9a1f0120a95e7c0749f389863cbdbfff531aa7339077a5bc919de",
            "0x00000000000000000000000082af49447d8a07e3bd95bd0d56f35241523fbab1"
          ],
          "data": "0x000000000000000000000000000000000000000000000000023e52557c5cc27d",
          "blockHash": "0x051fa845af66b02a0a9056f525f8935ea62e4ba32e48937ba7866b38b18eb8fc",
          "blockNumber": "0xdfb15bb",
          "transactionHash": "0x2d5d5fcb22e8ca097b95141cb92f69e16901bcee5f1097933ec09def024dd6b7",
          "transactionIndex": "0x4",
          "logIndex": "0x12",
          "removed": false
        },
        {
          "address": "0x6ab707aca953edaefbc4fd23ba73294241490620",
          "topics": [
            "0xddf252ad1be2c89b69c2b068fc378daa952ba7f163c4a11628f55a4df523b3ef",
            "0x0000000000000000000000000000000000000000000000000000000000000000",
            "0x000000000000000000000000053d55f9b5af8694c503eb288a1b7e552f590710"
          ],
          "data": "0x0000000000000000000000000000000000000000000000000000000012690537",
          "blockHash": "0x051fa845af66b02a0a9056f525f8935ea62e4ba32e48937ba7866b38b18eb8fc",
          "blockNumber": "0xdfb15bb",
          "transactionHash": "0x2d5d5fcb22e8ca097b95141cb92f69e16901bcee5f1097933ec09def024dd6b7",
          "transactionIndex": "0x4",
          "logIndex": "0x13",
          "removed": false
        },
        {
          "address": "0x6ab707aca953edaefbc4fd23ba73294241490620",
          "topics": [
            "0x458f5fa412d0f69b08dd84872b0215675cc67bc1d5b6fd93300a1c3878b86196",
            "0x000000000000000000000000794a61358d6845594f94dc1db02a252b5b4814ad",
            "0x000000000000000000000000053d55f9b5af8694c503eb288a1b7e552f590710"
          ],
          "data": "0x000000000000000000000000000000000000000000000000000000001269053700000000000000000000000000000000000000000000000000000000008e8410000000000000000000000000000000000000000003a4171b05dfedb81996530d",
          "blockHash": "0x051fa845af66b02a0a9056f525f8935ea62e4ba32e48937ba7866b38b18eb8fc",
          "blockNumber": "0xdfb15bb",
          "transactionHash": "0x2d5d5fcb22e8ca097b95141cb92f69e16901bcee5f1097933ec09def024dd6b7",
          "transactionIndex": "0x4",
          "logIndex": "0x14",
          "removed": false
        },
        {
          "address": "0x794a61358d6845594f94dc1db02a252b5b4814ad",
          "topics": [
            "0xbfa21aa5d5f9a1f0120a95e7c0749f389863cbdbfff531aa7339077a5bc919de",
            "0x000000000000000000000000fd086bc7cd5c481dcc9c85ebe478a1c0b69fcbb9"
          ],
          "data": "0x0000000000000000000000000000000000000000000000000000000011da8127",
          "blockHash": "0x051fa845af66b02a0a9056f525f8935ea62e4ba32e48937ba7866b38b18eb8fc",
          "blockNumber": "0xdfb15bb",
          "transactionHash": "0x2d5d5fcb22e8ca097b95141cb92f69e16901bcee5f1097933ec09def024dd6b7",
          "transactionIndex": "0x4",
          "logIndex": "0x15",
          "removed": false
        },
        {
          "address": "0x513c7e3a9c69ca3e22550ef58ac1c0088e918fff",
          "topics": [
            "0xddf252ad1be2c89b69c2b068fc378daa952ba7f163c4a11628f55a4df523b3ef",
            "0x0000000000000000000000000000000000000000000000000000000000000000",
            "0x000000000000000000000000053d55f9b5af8694c503eb288a1b7e552f590710"
          ],
          "data": "0x0000000000000000000000000000000000000000000000000004ab5fbc27ffc7",
          "blockHash": "0x051fa845af66b02a0a9056f525f8935ea62e4ba32e48937ba7866b38b18eb8fc",
          "blockNumber": "0xdfb15bb",
          "transactionHash": "0x2d5d5fcb22e8ca097b95141cb92f69e16901bcee5f1097933ec09def024dd6b7",
          "transactionIndex": "0x4",
          "logIndex": "0x16",
          "removed": false
        },
        {
          "address": "0x513c7e3a9c69ca3e22550ef58ac1c0088e918fff",
          "topics": [
            "0x458f5fa412d0f69b08dd84872b0215675cc67bc1d5b6fd93300a1c3878b86196",
            "0x000000000000000000000000794a61358d6845594f94dc1db02a252b5b4814ad",
            "0x000000000000000000000000053d55f9b5af8694c503eb288a1b7e552f590710"
          ],
          "data": "0x0000000000000000000000000000000000000000000000000004ab5fbc27ffc7000000000000000000000000000000000000000000000000000000daba410ffd0000000000000000000000000000000000000000033b6a5495bb1d143d3ffb22",
          "blockHash": "0x051fa845af66b02a0a9056f525f8935ea62e4ba32e48937ba7866b38b18eb8fc",
          "blockNumber": "0xdfb15bb",
          "transactionHash": "0x2d5d5fcb22e8ca097b95141cb92f69e16901bcee5f1097933ec09def024dd6b7",
          "transactionIndex": "0x4",
          "logIndex": "0x17",
          "removed": false
        },
        {
          "address": "0x794a61358d6845594f94dc1db02a252b5b4814ad",
          "topics": [
            "0xbfa21aa5d5f9a1f0120a95e7c0749f389863cbdbfff531aa7339077a5bc919de",
            "0x0000000000000000000000005979d7b546e38e414f7e9822514be443a4800529"
          ],
          "data": "0x0000000000000000000000000000000000000000000000000004aa8501e6efca",
          "blockHash": "0x051fa845af66b02a0a9056f525f8935ea62e4ba32e48937ba7866b38b18eb8fc",
          "blockNumber": "0xdfb15bb",
          "transactionHash": "0x2d5d5fcb22e8ca097b95141cb92f69e16901bcee5f1097933ec09def024dd6b7",
          "transactionIndex": "0x4",
          "logIndex": "0x18",
          "removed": false
        },
        {
          "address": "0x8eb270e296023e9d92081fdf967ddd7878724424",
          "topics": [
            "0xddf252ad1be2c89b69c2b068fc378daa952ba7f163c4a11628f55a4df523b3ef",
            "0x0000000000000000000000000000000000000000000000000000000000000000",
            "0x000000000000000000000000053d55f9b5af8694c503eb288a1b7e552f590710"
          ],
          "data": "0x00000000000000000000000000000000000000000000000000003ca9eb8c321d",
          "blockHash": "0x051fa845af66b02a0a9056f525f8935ea62e4ba32e48937ba7866b38b18eb8fc",
          "blockNumber": "0xdfb15bb",
          "transactionHash": "0x2d5d5fcb22e8ca097b95141cb92f69e16901bcee5f1097933ec09def024dd6b7",
          "transactionIndex": "0x4",
          "logIndex": "0x19",
          "removed": false
        },
        {
          "address": "0x8eb270e296023e9d92081fdf967ddd7878724424",
          "topics": [
            "0x458f5fa412d0f69b08dd84872b0215675cc67bc1d5b6fd93300a1c3878b86196",
            "0x000000000000000000000000794a61358d6845594f94dc1db02a252b5b4814ad",
            "0x000000000000000000000000053d55f9b5af8694c503eb288a1b7e552f590710"
          ],
          "data": "0x00000000000000000000000000000000000000000000000000003ca9eb8c321d0000000000000000000000000000000000000000000000000000001a37855e300000000000000000000000000000000000000000033cb767157903bb0d2f77ba",
          "blockHash": "0x051fa845af66b02a0a9056f525f8935ea62e4ba32e48937ba7866b38b18eb8fc",
          "blockNumber": "0xdfb15bb",
          "transactionHash": "0x2d5d5fcb22e8ca097b95141cb92f69e16901bcee5f1097933ec09def024dd6b7",
          "transactionIndex": "0x4",
          "logIndex": "0x1a",
          "removed": false
        },
        {
          "address": "0x794a61358d6845594f94dc1db02a252b5b4814ad",
          "topics": [
            "0xbfa21aa5d5f9a1f0120a95e7c0749f389863cbdbfff531aa7339077a5bc919de",
            "0x000000000000000000000000ec70dcb4a1efa46b8f2d97c310c9c4790ba5ffa8"
          ],
          "data": "0x00000000000000000000000000000000000000000000000000003c8fb406d3ed",
          "blockHash": "0x051fa845af66b02a0a9056f525f8935ea62e4ba32e48937ba7866b38b18eb8fc",
          "blockNumber": "0xdfb15bb",
          "transactionHash": "0x2d5d5fcb22e8ca097b95141cb92f69e16901bcee5f1097933ec09def024dd6b7",
          "transactionIndex": "0x4",
          "logIndex": "0x1b",
          "removed": false
        },
        {
          "address": "0x8ffdf2de812095b1d19cb146e4c004587c0a0692",
          "topics": [
            "0xddf252ad1be2c89b69c2b068fc378daa952ba7f163c4a11628f55a4df523b3ef",
            "0x0000000000000000000000000000000000000000000000000000000000000000",
            "0x000000000000000000000000053d55f9b5af8694c503eb288a1b7e552f590710"
          ],
          "data": "0x000000000000000000000000000000000000000000000000b628e428979bca1f",
          "blockHash": "0x051fa845af66b02a0a9056f525f8935ea62e4ba32e48937ba7866b38b18eb8fc",
          "blockNumber": "0xdfb15bb",
          "transactionHash": "0x2d5d5fcb22e8ca097b95141cb92f69e16901bcee5f1097933ec09def024dd6b7",
          "transactionIndex": "0x4",
          "logIndex": "0x1c",
          "removed": false
        },
        {
          "address": "0x8ffdf2de812095b1d19cb146e4c004587c0a0692",
          "topics": [
            "0x458f5fa412d0f69b08dd84872b0215675cc67bc1d5b6fd93300a1c3878b86196",
            "0x000000000000000000000000794a61358d6845594f94dc1db02a252b5b4814ad",
            "0x000000000000000000000000053d55f9b5af8694c503eb288a1b7e552f590710"
          ],
          "data": "0x000000000000000000000000000000000000000000000000b628e428979bca1f000000000000000000000000000000000000000000000000062aa1081852425b00000000000000000000000000000000000000000372647c83d12a20bd35a766",
          "blockHash": "0x051fa845af66b02a0a9056f525f8935ea62e4ba32e48937ba7866b38b18eb8fc",
          "blockNumber": "0xdfb15bb",
          "transactionHash": "0x2d5d5fcb22e8ca097b95141cb92f69e16901bcee5f1097933ec09def024dd6b7",
          "transactionIndex": "0x4",
          "logIndex": "0x1d",
          "removed": false
        },
        {
          "address": "0x794a61358d6845594f94dc1db02a252b5b4814ad",
          "topics": [
            "0xbfa21aa5d5f9a1f0120a95e7c0749f389863cbdbfff531aa7339077a5bc919de",
            "0x00000000000000000000000093b346b6bc2548da6a1e7d98e9a421b42541425b"
          ],
          "data": "0x000000000000000000000000000000000000000000000000affe43207f4987c4",
          "blockHash": "0x051fa845af66b02a0a9056f525f8935ea62e4ba32e48937ba7866b38b18eb8fc",
          "blockNumber": "0xdfb15bb",
          "transactionHash": "0x2d5d5fcb22e8ca097b95141cb92f69e16901bcee5f1097933ec09def024dd6b7",
          "transactionIndex": "0x4",
          "logIndex": "0x1e",
          "removed": false
        },
        {
          "address": "0x724dc807b04555b71ed48a6896b6f41593b8c637",
          "topics": [
            "0xddf252ad1be2c89b69c2b068fc378daa952ba7f163c4a11628f55a4df523b3ef",
            "0x0000000000000000000000000000000000000000000000000000000000000000",
            "0x000000000000000000000000053d55f9b5af8694c503eb288a1b7e552f590710"
          ],
          "data": "0x00000000000000000000000000000000000000000000000000000000371c6b2f",
          "blockHash": "0x051fa845af66b02a0a9056f525f8935ea62e4ba32e48937ba7866b38b18eb8fc",
          "blockNumber": "0xdfb15bb",
          "transactionHash": "0x2d5d5fcb22e8ca097b95141cb92f69e16901bcee5f1097933ec09def024dd6b7",
          "transactionIndex": "0x4",
          "logIndex": "0x1f",
          "removed": false
        },
        {
          "address": "0x724dc807b04555b71ed48a6896b6f41593b8c637",
          "topics": [
            "0x458f5fa412d0f69b08dd84872b0215675cc67bc1d5b6fd93300a1c3878b86196",
            "0x000000000000000000000000794a61358d6845594f94dc1db02a252b5b4814ad",
            "0x000000000000000000000000053d55f9b5af8694c503eb288a1b7e552f590710"
          ],
          "data": "0x00000000000000000000000000000000000000000000000000000000371c6b2f00000000000000000000000000000000000000000000000000000000019de9e20000000000000000000000000000000000000000037e56cd088f970a31554d61",
          "blockHash": "0x051fa845af66b02a0a9056f525f8935ea62e4ba32e48937ba7866b38b18eb8fc",
          "blockNumber": "0xdfb15bb",
          "transactionHash": "0x2d5d5fcb22e8ca097b95141cb92f69e16901bcee5f1097933ec09def024dd6b7",
          "transactionIndex": "0x4",
          "logIndex": "0x20",
          "removed": false
        },
        {
          "address": "0x794a61358d6845594f94dc1db02a252b5b4814ad",
          "topics": [
            "0xbfa21aa5d5f9a1f0120a95e7c0749f389863cbdbfff531aa7339077a5bc919de",
            "0x000000000000000000000000af88d065e77c8cc2239327c5edb3a432268e5831"
          ],
          "data": "0x00000000000000000000000000000000000000000000000000000000357e814d",
          "blockHash": "0x051fa845af66b02a0a9056f525f8935ea62e4ba32e48937ba7866b38b18eb8fc",
          "blockNumber": "0xdfb15bb",
          "transactionHash": "0x2d5d5fcb22e8ca097b95141cb92f69e16901bcee5f1097933ec09def024dd6b7",
          "transactionIndex": "0x4",
          "logIndex": "0x21",
          "removed": false
        },
        {
          "address": "0x38d693ce1df5aadf7bc62595a37d667ad57922e5",
          "topics": [
            "0xddf252ad1be2c89b69c2b068fc378daa952ba7f163c4a11628f55a4df523b3ef",
            "0x0000000000000000000000000000000000000000000000000000000000000000",
            "0x000000000000000000000000053d55f9b5af8694c503eb288a1b7e552f590710"
          ],
          "data": "0x0000000000000000000000000000000000000000000000002580603168a00a8f",
          "blockHash": "0x051fa845af66b02a0a9056f525f8935ea62e4ba32e48937ba7866b38b18eb8fc",
          "blockNumber": "0xdfb15bb",
          "transactionHash": "0x2d5d5fcb22e8ca097b95141cb92f69e16901bcee5f1097933ec09def024dd6b7",
          "transactionIndex": "0x4",
          "logIndex": "0x22",
          "removed": false
        },
        {
          "address": "0x38d693ce1df5aadf7bc62595a37d667ad57922e5",
          "topics": [
            "0x458f5fa412d0f69b08dd84872b0215675cc67bc1d5b6fd93300a1c3878b86196",
            "0x000000000000000000000000794a61358d6845594f94dc1db02a252b5b4814ad",
            "0x000000000000000000000000053d55f9b5af8694c503eb288a1b7e552f590710"
          ],
          "data": "0x0000000000000000000000000000000000000000000000002580603168a00a8f00000000000000000000000000000000000000000000000001614285c6d0e32200000000000000000000000000000000000000000380170d6df3f726f867a4de",
          "blockHash": "0x051fa845af66b02a0a9056f525f8935ea62e4ba32e48937ba7866b38b18eb8fc",
          "blockNumber": "0xdfb15bb",
          "transactionHash": "0x2d5d5fcb22e8ca097b95141cb92f69e16901bcee5f1097933ec09def024dd6b7",
          "transactionIndex": "0x4",
          "logIndex": "0x23",
          "removed": false
        },
        {
          "address": "0x794a61358d6845594f94dc1db02a252b5b4814ad",
          "topics": [
            "0xbfa21aa5d5f9a1f0120a95e7c0749f389863cbdbfff531aa7339077a5bc919de",
            "0x00000000000000000000000017fc002b466eec40dae837fc4be5c67993ddbd6f"
          ],
          "data": "0x000000000000000000000000000000000000000000000000241f1daba1cf276d",
          "blockHash": "0x051fa845af66b02a0a9056f525f8935ea62e4ba32e48937ba7866b38b18eb8fc",
          "blockNumber": "0xdfb15bb",
          "transactionHash": "0x2d5d5fcb22e8ca097b95141cb92f69e16901bcee5f1097933ec09def024dd6b7",
          "transactionIndex": "0x4",
          "logIndex": "0x24",
          "removed": false
        },
        {
          "address": "0x6533afac2e7bccb20dca161449a13a32d391fb00",
          "topics": [
            "0xddf252ad1be2c89b69c2b068fc378daa952ba7f163c4a11628f55a4df523b3ef",
            "0x0000000000000000000000000000000000000000000000000000000000000000",
            "0x000000000000000000000000053d55f9b5af8694c503eb288a1b7e552f590710"
          ],
          "data": "0x000000000000000000000000000000000000000000000001a9c5d10183d6e23d",
          "blockHash": "0x051fa845af66b02a0a9056f525f8935ea62e4ba32e48937ba7866b38b18eb8fc",
          "blockNumber": "0xdfb15bb",
          "transactionHash": "0x2d5d5fcb22e8ca097b95141cb92f69e16901bcee5f1097933ec09def024dd6b7",
          "transactionIndex": "0x4",
          "logIndex": "0x25",
          "removed": false
        },
        {
          "address": "0x6533afac2e7bccb20dca161449a13a32d391fb00",
          "topics": [
            "0x458f5fa412d0f69b08dd84872b0215675cc67bc1d5b6fd93300a1c3878b86196",
            "0x000000000000000000000000794a61358d6845594f94dc1db02a252b5b4814ad",
            "0x000000000000000000000000053d55f9b5af8694c503eb288a1b7e552f590710"
          ],
          "data": "0x000000000000000000000000000000000000000000000001a9c5d10183d6e23d000000000000000000000000000000000000000000000000016ef27e91c01ee40000000000000000000000000000000000000000033dc83310d1cc2b383648c6",
          "blockHash": "0x051fa845af66b02a0a9056f525f8935ea62e4ba32e48937ba7866b38b18eb8fc",
          "blockNumber": "0xdfb15bb",
          "transactionHash": "0x2d5d5fcb22e8ca097b95141cb92f69e16901bcee5f1097933ec09def024dd6b7",
          "transactionIndex": "0x4",
          "logIndex": "0x26",
          "removed": false
        },
        {
          "address": "0x794a61358d6845594f94dc1db02a252b5b4814ad",
          "topics": [
            "0xbfa21aa5d5f9a1f0120a95e7c0749f389863cbdbfff531aa7339077a5bc919de",
            "0x000000000000000000000000912ce59144191c1204e64559fe8253a0e49e6548"
          ],
          "data": "0x000000000000000000000000000000000000000000000001a856de82f216c359",
          "blockHash": "0x051fa845af66b02a0a9056f525f8935ea62e4ba32e48937ba7866b38b18eb8fc",
          "blockNumber": "0xdfb15bb",
          "transactionHash": "0x2d5d5fcb22e8ca097b95141cb92f69e16901bcee5f1097933ec09def024dd6b7",
          "transactionIndex": "0x4",
          "logIndex": "0x27",
          "removed": false
        },
        {
          "address": "0x8437d7c167dfb82ed4cb79cd44b7a32a1dd95c77",
          "topics": [
            "0xddf252ad1be2c89b69c2b068fc378daa952ba7f163c4a11628f55a4df523b3ef",
            "0x0000000000000000000000000000000000000000000000000000000000000000",
            "0x000000000000000000000000053d55f9b5af8694c503eb288a1b7e552f590710"
          ],
          "data": "0x00000000000000000000000000000000000000000000000000d7e7aa50e358d1",
          "blockHash": "0x051fa845af66b02a0a9056f525f8935ea62e4ba32e48937ba7866b38b18eb8fc",
          "blockNumber": "0xdfb15bb",
          "transactionHash": "0x2d5d5fcb22e8ca097b95141cb92f69e16901bcee5f1097933ec09def024dd6b7",
          "transactionIndex": "0x4",
          "logIndex": "0x28",
          "removed": false
        },
        {
          "address": "0x8437d7c167dfb82ed4cb79cd44b7a32a1dd95c77",
          "topics": [
            "0x458f5fa412d0f69b08dd84872b0215675cc67bc1d5b6fd93300a1c3878b86196",
            "0x000000000000000000000000794a61358d6845594f94dc1db02a252b5b4814ad",
            "0x000000000000000000000000053d55f9b5af8694c503eb288a1b7e552f590710"
          ],
          "data": "0x00000000000000000000000000000000000000000000000000d7e7aa50e358d100000000000000000000000000000000000000000000000000001622b7d13c370000000000000000000000000000000000000000033bd48ccb5beadbbe3f7f64",
          "blockHash": "0x051fa845af66b02a0a9056f525f8935ea62e4ba32e48937ba7866b38b18eb8fc",
          "blockNumber": "0xdfb15bb",
          "transactionHash": "0x2d5d5fcb22e8ca097b95141cb92f69e16901bcee5f1097933ec09def024dd6b7",
          "transactionIndex": "0x4",
          "logIndex": "0x29",
          "removed": false
        },
        {
          "address": "0x794a61358d6845594f94dc1db02a252b5b4814ad",
          "topics": [
            "0xbfa21aa5d5f9a1f0120a95e7c0749f389863cbdbfff531aa7339077a5bc919de",
            "0x00000000000000000000000035751007a407ca6feffe80b3cb397736d2cf4dbe"
          ],
          "data": "0x00000000000000000000000000000000000000000000000000d7d18799121c9a",
          "blockHash": "0x051fa845af66b02a0a9056f525f8935ea62e4ba32e48937ba7866b38b18eb8fc",
          "blockNumber": "0xdfb15bb",
          "transactionHash": "0x2d5d5fcb22e8ca097b95141cb92f69e16901bcee5f1097933ec09def024dd6b7",
          "transactionIndex": "0x4",
          "logIndex": "0x2a",
          "removed": false
        },
        {
          "address": "0xebe517846d0f36eced99c735cbf6131e1feb775d",
          "topics": [
            "0xddf252ad1be2c89b69c2b068fc378daa952ba7f163c4a11628f55a4df523b3ef",
            "0x0000000000000000000000000000000000000000000000000000000000000000",
            "0x000000000000000000000000053d55f9b5af8694c503eb288a1b7e552f590710"
          ],
          "data": "0x00000000000000000000000000000000000000000000000013f766d32128f725",
          "blockHash": "0x051fa845af66b02a0a9056f525f8935ea62e4ba32e48937ba7866b38b18eb8fc",
          "blockNumber": "0xdfb15bb",
          "transactionHash": "0x2d5d5fcb22e8ca097b95141cb92f69e16901bcee5f1097933ec09def024dd6b7",
          "transactionIndex": "0x4",
          "logIndex": "0x2b",
          "removed": false
        },
        {
          "address": "0xebe517846d0f36eced99c735cbf6131e1feb775d",
          "topics": [
            "0x458f5fa412d0f69b08dd84872b0215675cc67bc1d5b6fd93300a1c3878b86196",
            "0x000000000000000000000000794a61358d6845594f94dc1db02a252b5b4814ad",
            "0x000000000000000000000000053d55f9b5af8694c503eb288a1b7e552f590710"
          ],
          "data": "0x00000000000000000000000000000000000000000000000013f766d32128f725000000000000000000000000000000000000000000000000000dc11c7ce17efd0000000000000000000000000000000000000000033da9ad19cba2d5d5121d91",
          "blockHash": "0x051fa845af66b02a0a9056f525f8935ea62e4ba32e48937ba7866b38b18eb8fc",
          "blockNumber": "0xdfb15bb",
          "transactionHash": "0x2d5d5fcb22e8ca097b95141cb92f69e16901bcee5f1097933ec09def024dd6b7",
          "transactionIndex": "0x4",
          "logIndex": "0x2c",
          "removed": false
        },
        {
          "address": "0x794a61358d6845594f94dc1db02a252b5b4814ad",
          "topics": [
            "0xbfa21aa5d5f9a1f0120a95e7c0749f389863cbdbfff531aa7339077a5bc919de",
            "0x0000000000000000000000007dff72693f6a4149b17e7c6314655f6a9f7c8b33"
          ],
          "data": "0x00000000000000000000000000000000000000000000000013e9a5b6a4477828",
          "blockHash": "0x051fa845af66b02a0a9056f525f8935ea62e4ba32e48937ba7866b38b18eb8fc",
          "blockNumber": "0xdfb15bb",
          "transactionHash": "0x2d5d5fcb22e8ca097b95141cb92f69e16901bcee5f1097933ec09def024dd6b7",
          "transactionIndex": "0x4",
          "logIndex": "0x2d",
          "removed": false
        }
      ],
      "logsBloom": "0x0008000800000000000000000000000401000000010000000100000000000000100100000024000110000040000400000100000000000400000400210040008000004000000122010002400800000001000004400800000080400804000000041200000042010000010000000000080000008010000000000000201000001000000000000000001000020000010000000000090180000000000400002000000200100000000000000000012200000100000800000000014200000000040000000202800200000000000000000000000160000011000021002c004000000120000000100000002000120800000000000000000000002204a00640080000000000",
      "type": "0x2",
      "transactionHash": "0x2d5d5fcb22e8ca097b95141cb92f69e16901bcee5f1097933ec09def024dd6b7",
      "transactionIndex": "0x4",
      "blockHash": "0x051fa845af66b02a0a9056f525f8935ea62e4ba32e48937ba7866b38b18eb8fc",
      "blockNumber": "0xdfb15bb",
      "gasUsed": "0xb1667",
      "effectiveGasPrice": "0x9d97c0",
      "from": "0x3cbded22f878afc8d39dcd744d3fe62086b76193",
      "to": "0x794a61358d6845594f94dc1db02a252b5b4814ad",
      "contractAddress": null,
      "gasUsedForL1": "0xeff4",
      "l1BlockNumber": "0x1369a2d"
    }
  ],
  "libraries": [],
  "pending": [],
  "returns": {},
  "timestamp": 1721573564,
  "chain": 42161,
  "commit": "36de58b"
}