{
  "transactions": [
    {
      "hash": "0x015bd2c42495d965e9875ab2e70aa654798550a7489bbf5a753aa159d2f715af",
      "transactionType": "CALL",
      "contractName": null,
      "contractAddress": "0x87870bca3f3fd6335c3f4ce8392d69350b4fa4e2",
      "function": "mintToTreasury(address[])",
      "arguments": [
        "[0xC02aaA39b223FE8D0A0e5C4F27eAD9083C756Cc2, 0x7f39C581F595B53c5cb19bD0b3f8dA6c935E2Ca0, 0x2260FAC5E5542a773Aa44fBCfeDf7C193bc2C599, 0xA0b86991c6218b36c1d19D4a2e9Eb0cE3606eB48, 0x6B175474E89094C44Da98b954EedeAC495271d0F, 0x514910771AF9Ca656af840dff83E8264EcF986CA, 0x7Fc66500c84A76Ad7e9c93437bFc5Ac33E2DDaE9, 0xBe9895146f7AF43049ca1c1AE358B0541Ea49704, 0xdAC17F958D2ee523a2206206994597C13D831ec7, 0xae78736Cd615f374D3085123A210448E74Fc6393, 0x5f98805A4E8be255a32880FDeC7F6728C6568bA0, 0xD533a949740bb3306d119CC777fa900bA034cd52, 0x9f8F72aA9304c8B593d555F12eF6589cC3A579A2, 0xC011a73ee8576Fb46F5E1c5751cA3B9Fe0af2a6F, 0xba100000625a3754423978a60c9317c58a424e3D, 0x1f9840a85d5aF5bf1D1762F925BDADdC4201F984, 0x5A98FcBEA516Cf06857215779Fd812CA3beF1B32, 0xC18360217D8F7Ab5e7c516566761Ea12Ce7F9D72, 0x111111111117dC0aa78b770fA6A738034120C302, 0x853d955aCEf822Db058eb8505911ED77F175b99e, 0x40D16FC0246aD3160Ccc09B8D0D3A2cD28aE6C2f, 0xD33526068D116cE69F19A9ee46F0bd304F21A51f, 0x83F20F44975D03b1b09e64809B757c47f942BEeA, 0xAf5191B0De278C7286d6C7CC6ab6BB8A73bA2Cd6, 0xdeFA4e8a7bcBA345F687a2f1456F5Edd9CE97202, 0x3432B6A60D23Ca0dFCa7761B7ab56459D9C964D0, 0xf939E0A03FB07F59A73314E73794Be0E57ac1b4E, 0x6c3ea9036406852006290770BEdFcAbA0e23A0e8, 0xCd5fE23C85820F7B72D0926FC9b05b43E359b7ee, 0xf1C9acDc66974dFB6dEcB12aA385b9cD01190E38, 0x4c9EDD5852cd905f086C759E8383e09bff1E68B3, 0xA35b1B31Ce002FBF2058D22F30f95D405200A15b, 0x9D39A5DE30e57443BfF2A8307A4256c8797A3497]"
      ],
      "transaction": {
        "from": "0x3cbded22f878afc8d39dcd744d3fe62086b76193",
        "to": "0x87870bca3f3fd6335c3f4ce8392d69350b4fa4e2",
        "gas": "0xe7f1b",
        "value": "0x0",
        "input": "0x9cd1999600000000000000000000000000000000000000000000000000000000000000200000000000000000000000000000000000000000000000000000000000000021000000000000000000000000c02aaa39b223fe8d0a0e5c4f27ead9083c756cc20000000000000000000000007f39c581f595b53c5cb19bd0b3f8da6c935e2ca00000000000000000000000002260fac5e5542a773aa44fbcfedf7c193bc2c599000000000000000000000000a0b86991c6218b36c1d19d4a2e9eb0ce3606eb480000000000000000000000006b175474e89094c44da98b954eedeac495271d0f000000000000000000000000514910771af9ca656af840dff83e8264ecf986ca0000000000000000000000007fc66500c84a76ad7e9c93437bfc5ac33e2ddae9000000000000000000000000be9895146f7af43049ca1c1ae358b0541ea49704000000000000000000000000dac17f958d2ee523a2206206994597c13d831ec7000000000000000000000000ae78736cd615f374d3085123a210448e74fc63930000000000000000000000005f98805a4e8be255a32880fdec7f6728c6568ba0000000000000000000000000d533a949740bb3306d119cc777fa900ba034cd520000000000000000000000009f8f72aa9304c8b593d555f12ef6589cc3a579a2000000000000000000000000c011a73ee8576fb46f5e1c5751ca3b9fe0af2a6f000000000000000000000000ba100000625a3754423978a60c9317c58a424e3d0000000000000000000000001f9840a85d5af5bf1d1762f925bdaddc4201f9840000000000000000000000005a98fcbea516cf06857215779fd812ca3bef1b32000000000000000000000000c18360217d8f7ab5e7c516566761ea12ce7f9d72000000000000000000000000111111111117dc0aa78b770fa6a738034120c302000000000000000000000000853d955acef822db058eb8505911ed77f175b99e00000000000000000000000040d16fc0246ad3160ccc09b8d0d3a2cd28ae6c2f000000000000000000000000d33526068d116ce69f19a9ee46f0bd304f21a51f00000000000000000000000083f20f44975d03b1b09e64809b757c47f942beea000000000000000000000000af5191b0de278c7286d6c7cc6ab6bb8a73ba2cd6000000000000000000000000defa4e8a7bcba345f687a2f1456f5edd9ce972020000000000000000000000003432b6a60d23ca0dfca7761b7ab56459d9c964d0000000000000000000000000f939e0a03fb07f59a73314e73794be0e57ac1b4e0000000000000000000000006c3ea9036406852006290770bedfcaba0e23a0e8000000000000000000000000cd5fe23c85820f7b72d0926fc9b05b43e359b7ee000000000000000000000000f1c9acdc66974dfb6decb12aa385b9cd01190e380000000000000000000000004c9edd5852cd905f086c759e8383e09bff1e68b3000000000000000000000000a35b1b31ce002fbf2058d22f30f95d405200a15b0000000000000000000000009d39a5de30e57443bff2a8307a4256c8797a3497",
        "nonce": "0x6c6",
        "chainId": "0x1"
      },
      "additionalContracts": [],
      "isFixedGasLimit": false
    }
  ],
  "receipts": [
    {
      "status": "0x1",
      "cumulativeGasUsed": "0x1854bf1",
      "logs": [
        {
          "address": "0x4d5f47fa6a74757f35c14fd3a6ef8e3c9bc514e8",
          "topics": [
            "0xddf252ad1be2c89b69c2b068fc378daa952ba7f163c4a11628f55a4df523b3ef",
            "0x0000000000000000000000000000000000000000000000000000000000000000",
            "0x000000000000000000000000464c71f6c2f760dda6093dcb91c24c39e5d6e18c"
          ],
          "data": "0x0000000000000000000000000000000000000000000000001505b3525ada58fe",
          "blockHash": "0x3cedda70739715b6ae70b61ce01e3e604cd5d75ba2f59058813a197b87ab432d",
          "blockNumber": "0x1369a36",
          "transactionHash": "0x015bd2c42495d965e9875ab2e70aa654798550a7489bbf5a753aa159d2f715af",
          "transactionIndex": "0x100",
          "logIndex": "0x259",
          "removed": false
        },
        {
          "address": "0x4d5f47fa6a74757f35c14fd3a6ef8e3c9bc514e8",
          "topics": [
            "0x458f5fa412d0f69b08dd84872b0215675cc67bc1d5b6fd93300a1c3878b86196",
            "0x00000000000000000000000087870bca3f3fd6335c3f4ce8392d69350b4fa4e2",
            "0x000000000000000000000000464c71f6c2f760dda6093dcb91c24c39e5d6e18c"
          ],
          "data": "0x0000000000000000000000000000000000000000000000001505b3525ada58fe0000000000000000000000000000000000000000000000000017a9a753d6c5130000000000000000000000000000000000000000035259d2e5b39e4cd4e19370",
          "blockHash": "0x3cedda70739715b6ae70b61ce01e3e604cd5d75ba2f59058813a197b87ab432d",
          "blockNumber": "0x1369a36",
          "transactionHash": "0x015bd2c42495d965e9875ab2e70aa654798550a7489bbf5a753aa159d2f715af",
          "transactionIndex": "0x100",
          "logIndex": "0x25a",
          "removed": false
        },
        {
          "address": "0x87870bca3f3fd6335c3f4ce8392d69350b4fa4e2",
          "topics": [
            "0xbfa21aa5d5f9a1f0120a95e7c0749f389863cbdbfff531aa7339077a5bc919de",
            "0x000000000000000000000000c02aaa39b223fe8d0a0e5c4f27ead9083c756cc2"
          ],
          "data": "0x00000000000000000000000000000000000000000000000014ee09ab070393eb",
          "blockHash": "0x3cedda70739715b6ae70b61ce01e3e604cd5d75ba2f59058813a197b87ab432d",
          "blockNumber": "0x1369a36",
          "transactionHash": "0x015bd2c42495d965e9875ab2e70aa654798550a7489bbf5a753aa159d2f715af",
          "transactionIndex": "0x100",
          "logIndex": "0x25b",
          "removed": false
        },
        {
          "address": "0x0b925ed163218f6662a35e0f0371ac234f9e9371",
          "topics": [
            "0xddf252ad1be2c89b69c2b068fc378daa952ba7f163c4a11628f55a4df523b3ef",
            "0x0000000000000000000000000000000000000000000000000000000000000000",
            "0x000000000000000000000000464c71f6c2f760dda6093dcb91c24c39e5d6e18c"
          ],
          "data": "0x000000000000000000000000000000000000000000000000002c114300c76f93",
          "blockHash": "0x3cedda70739715b6ae70b61ce01e3e604cd5d75ba2f59058813a197b87ab432d",
          "blockNumber": "0x1369a36",
          "transactionHash": "0x015bd2c42495d965e9875ab2e70aa654798550a7489bbf5a753aa159d2f715af",
          "transactionIndex": "0x100",
          "logIndex": "0x25c",
          "removed": false
        },
        {
          "address": "0x0b925ed163218f6662a35e0f0371ac234f9e9371",
          "topics": [
            "0x458f5fa412d0f69b08dd84872b0215675cc67bc1d5b6fd93300a1c3878b86196",
            "0x00000000000000000000000087870bca3f3fd6335c3f4ce8392d69350b4fa4e2",
            "0x000000000000000000000000464c71f6c2f760dda6093dcb91c24c39e5d6e18c"
          ],
          "data": "0x000000000000000000000000000000000000000000000000002c114300c76f93000000000000000000000000000000000000000000000000000004f4106d80cb0000000000000000000000000000000000000000033ba425a6463b77507e1b7a",
          "blockHash": "0x3cedda70739715b6ae70b61ce01e3e604cd5d75ba2f59058813a197b87ab432d",
          "blockNumber": "0x1369a36",
          "transactionHash": "0x015bd2c42495d965e9875ab2e70aa654798550a7489bbf5a753aa159d2f715af",
          "transactionIndex": "0x100",
          "logIndex": "0x25d",
          "removed": false
        },
        {
          "address": "0x87870bca3f3fd6335c3f4ce8392d69350b4fa4e2",
          "topics": [
            "0xbfa21aa5d5f9a1f0120a95e7c0749f389863cbdbfff531aa7339077a5bc919de",
            "0x0000000000000000000000007f39c581f595b53c5cb19bd0b3f8da6c935e2ca0"
          ],
          "data": "0x000000000000000000000000000000000000000000000000002c0c4ef059eec8",
          "blockHash": "0x3cedda70739715b6ae70b61ce01e3e604cd5d75ba2f59058813a197b87ab432d",
          "blockNumber": "0x1369a36",
          "transactionHash": "0x015bd2c42495d965e9875ab2e70aa654798550a7489bbf5a753aa159d2f715af",
          "transactionIndex": "0x100",
          "logIndex": "0x25e",
          "removed": false
        },
        {
          "address": "0x5ee5bf7ae06d1be5997a1a72006fe6c607ec6de8",
          "topics": [
            "0xddf252ad1be2c89b69c2b068fc378daa952ba7f163c4a11628f55a4df523b3ef",
            "0x0000000000000000000000000000000000000000000000000000000000000000",
            "0x000000000000000000000000464c71f6c2f760dda6093dcb91c24c39e5d6e18c"
          ],
          "data": "0x0000000000000000000000000000000000000000000000000000000000097490",
          "blockHash": "0x3cedda70739715b6ae70b61ce01e3e604cd5d75ba2f59058813a197b87ab432d",
          "blockNumber": "0x1369a36",
          "transactionHash": "0x015bd2c42495d965e9875ab2e70aa654798550a7489bbf5a753aa159d2f715af",
          "transactionIndex": "0x100",
          "logIndex": "0x25f",
          "removed": false
        },
        {
          "address": "0x5ee5bf7ae06d1be5997a1a72006fe6c607ec6de8",
          "topics": [
            "0x458f5fa412d0f69b08dd84872b0215675cc67bc1d5b6fd93300a1c3878b86196",
            "0x00000000000000000000000087870bca3f3fd6335c3f4ce8392d69350b4fa4e2",
            "0x000000000000000000000000464c71f6c2f760dda6093dcb91c24c39e5d6e18c"
          ],
          "data": "0x000000000000000000000000000000000000000000000000000000000009749000000000000000000000000000000000000000000000000000000000000005fa0000000000000000000000000000000000000000033d95070f102627d06ed826",
          "blockHash": "0x3cedda70739715b6ae70b61ce01e3e604cd5d75ba2f59058813a197b87ab432d",
          "blockNumber": "0x1369a36",
          "transactionHash": "0x015bd2c42495d965e9875ab2e70aa654798550a7489bbf5a753aa159d2f715af",
          "transactionIndex": "0x100",
          "logIndex": "0x260",
          "removed": false
        },
        {
          "address": "0x87870bca3f3fd6335c3f4ce8392d69350b4fa4e2",
          "topics": [
            "0xbfa21aa5d5f9a1f0120a95e7c0749f389863cbdbfff531aa7339077a5bc919de",
            "0x0000000000000000000000002260fac5e5542a773aa44fbcfedf7c193bc2c599"
          ],
          "data": "0x0000000000000000000000000000000000000000000000000000000000096e96",
          "blockHash": "0x3cedda70739715b6ae70b61ce01e3e604cd5d75ba2f59058813a197b87ab432d",
          "blockNumber": "0x1369a36",
          "transactionHash": "0x015bd2c42495d965e9875ab2e70aa654798550a7489bbf5a753aa159d2f715af",
          "transactionIndex": "0x100",
          "logIndex": "0x261",
          "removed": false
        },
        {
          "address": "0x98c23e9d8f34fefb1b7bd6a91b7ff122f4e16f5c",
          "topics": [
            "0xddf252ad1be2c89b69c2b068fc378daa952ba7f163c4a11628f55a4df523b3ef",
            "0x0000000000000000000000000000000000000000000000000000000000000000",
            "0x000000000000000000000000464c71f6c2f760dda6093dcb91c24c39e5d6e18c"
          ],
          "data": "0x00000000000000000000000000000000000000000000000000000001523ae9e0",
          "blockHash": "0x3cedda70739715b6ae70b61ce01e3e604cd5d75ba2f59058813a197b87ab432d",
          "blockNumber": "0x1369a36",
          "transactionHash": "0x015bd2c42495d965e9875ab2e70aa654798550a7489bbf5a753aa159d2f715af",
          "transactionIndex": "0x100",
          "logIndex": "0x262",
          "removed": false
        },
        {
          "address": "0x98c23e9d8f34fefb1b7bd6a91b7ff122f4e16f5c",
          "topics": [
            "0x458f5fa412d0f69b08dd84872b0215675cc67bc1d5b6fd93300a1c3878b86196",
            "0x00000000000000000000000087870bca3f3fd6335c3f4ce8392d69350b4fa4e2",
            "0x000000000000000000000000464c71f6c2f760dda6093dcb91c24c39e5d6e18c"
          ],
          "data": "0x00000000000000000000000000000000000000000000000000000001523ae9e0000000000000000000000000000000000000000000000000000000000d8d469b0000000000000000000000000000000000000000037c9a007b0814b53b8813d5",
          "blockHash": "0x3cedda70739715b6ae70b61ce01e3e604cd5d75ba2f59058813a197b87ab432d",
          "blockNumber": "0x1369a36",
          "transactionHash": "0x015bd2c42495d965e9875ab2e70aa654798550a7489bbf5a753aa159d2f715af",
          "transactionIndex": "0x100",
          "logIndex": "0x263",
          "removed": false
        },
        {
          "address": "0x87870bca3f3fd6335c3f4ce8392d69350b4fa4e2",
          "topics": [
            "0xbfa21aa5d5f9a1f0120a95e7c0749f389863cbdbfff531aa7339077a5bc919de",
            "0x000000000000000000000000a0b86991c6218b36c1d19d4a2e9eb0ce3606eb48"
          ],
          "data": "0x0000000000000000000000000000000000000000000000000000000144ada345",
          "blockHash": "0x3cedda70739715b6ae70b61ce01e3e604cd5d75ba2f59058813a197b87ab432d",
          "blockNumber": "0x1369a36",
          "transactionHash": "0x015bd2c42495d965e9875ab2e70aa654798550a7489bbf5a753aa159d2f715af",
          "transactionIndex": "0x100",
          "logIndex": "0x264",
          "removed": false
        },
        {
          "address": "0x018008bfb33d285247a21d44e50697654f754e63",
          "topics": [
            "0xddf252ad1be2c89b69c2b068fc378daa952ba7f163c4a11628f55a4df523b3ef",
            "0x0000000000000000000000000000000000000000000000000000000000000000",
            "0x000000000000000000000000464c71f6c2f760dda6093dcb91c24c39e5d6e18c"
          ],
          "data": "0x00000000000000000000000000000000000000000000004b28959eda742bf693",
          "blockHash": "0x3cedda70739715b6ae70b61ce01e3e604cd5d75ba2f59058813a197b87ab432d",
          "blockNumber": "0x1369a36",
          "transactionHash": "0x015bd2c42495d965e9875ab2e70aa654798550a7489bbf5a753aa159d2f715af",
          "transactionIndex": "0x100",
          "logIndex": "0x265",
          "removed": false
        },
        {
          "address": "0x018008bfb33d285247a21d44e50697654f754e63",
          "topics": [
            "0x458f5fa412d0f69b08dd84872b0215675cc67bc1d5b6fd93300a1c3878b86196",
            "0x00000000000000000000000087870bca3f3fd6335c3f4ce8392d69350b4fa4e2",
            "0x000000000000000000000000464c71f6c2f760dda6093dcb91c24c39e5d6e18c"
          ],
          "data": "0x00000000000000000000000000000000000000000000004b28959eda742bf693000000000000000000000000000000000000000000000001a9d3e0481e9a22b70000000000000000000000000000000000000000037b8a728fac48f7e8e93a7a",
          "blockHash": "0x3cedda70739715b6ae70b61ce01e3e604cd5d75ba2f59058813a197b87ab432d",
          "blockNumber": "0x1369a36",
          "transactionHash": "0x015bd2c42495d965e9875ab2e70aa654798550a7489bbf5a753aa159d2f715af",
          "transactionIndex": "0x100",
          "logIndex": "0x266",
          "removed": false
        },
        {
          "address": "0x87870bca3f3fd6335c3f4ce8392d69350b4fa4e2",
          "topics": [
            "0xbfa21aa5d5f9a1f0120a95e7c0749f389863cbdbfff531aa7339077a5bc919de",
            "0x0000000000000000000000006b175474e89094c44da98b954eedeac495271d0f"
          ],
          "data": "0x0000000000000000000000000000000000000000000000497ec1be925591d3dc",
          "blockHash": "0x3cedda70739715b6ae70b61ce01e3e604cd5d75ba2f59058813a197b87ab432d",
          "blockNumber": "0x1369a36",
          "transactionHash": "0x015bd2c42495d965e9875ab2e70aa654798550a7489bbf5a753aa159d2f715af",
          "transactionIndex": "0x100",
          "logIndex": "0x267",
          "removed": false
        },
        {
          "address": "0x23878914efe38d27c4d67ab83ed1b93a74d4086a",
          "topics": [
            "0xddf252ad1be2c89b69c2b068fc378daa952ba7f163c4a11628f55a4df523b3ef",
            "0x0000000000000000000000000000000000000000000000000000000000000000",
            "0x000000000000000000000000464c71f6c2f760dda6093dcb91c24c39e5d6e18c"
          ],
          "data": "0x000000000000000000000000000000000000000000000000000000014471c106",
          "blockHash": "0x3cedda70739715b6ae70b61ce01e3e604cd5d75ba2f59058813a197b87ab432d",
          "blockNumber": "0x1369a36",
          "transactionHash": "0x015bd2c42495d965e9875ab2e70aa654798550a7489bbf5a753aa159d2f715af",
          "transactionIndex": "0x100",
          "logIndex": "0x268",
          "removed": false
        },
        {
          "address": "0x23878914efe38d27c4d67ab83ed1b93a74d4086a",
          "topics": [
            "0x458f5fa412d0f69b08dd84872b0215675cc67bc1d5b6fd93300a1c3878b86196",
            "0x00000000000000000000000087870bca3f3fd6335c3f4ce8392d69350b4fa4e2",
            "0x000000000000000000000000464c71f6c2f760dda6093dcb91c24c39e5d6e18c"
          ],
          "data": "0x000000000000000000000000000000000000000000000000000000014471c106000000000000000000000000000000000000000000000000000000000901b8e50000000000000000000000000000000000000000037c8a6452ea9f9cad4476d5",
          "blockHash": "0x3cedda70739715b6ae70b61ce01e3e604cd5d75ba2f59058813a197b87ab432d",
          "blockNumber": "0x1369a36",
          "transactionHash": "0x015bd2c42495d965e9875ab2e70aa654798550a7489bbf5a753aa159d2f715af",
          "transactionIndex": "0x100",
          "logIndex": "0x269",
          "removed": false
        },
        {
          "address": "0x87870bca3f3fd6335c3f4ce8392d69350b4fa4e2",
          "topics": [
            "0xbfa21aa5d5f9a1f0120a95e7c0749f389863cbdbfff531aa7339077a5bc919de",
            "0x000000000000000000000000dac17f958d2ee523a2206206994597c13d831ec7"
          ],
          "data": "0x000000000000000000000000000000000000000000000000000000013b700821",
          "blockHash": "0x3cedda70739715b6ae70b61ce01e3e604cd5d75ba2f59058813a197b87ab432d",
          "blockNumber": "0x1369a36",
          "transactionHash": "0x015bd2c42495d965e9875ab2e70aa654798550a7489bbf5a753aa159d2f715af",
          "transactionIndex": "0x100",
          "logIndex": "0x26a",
          "removed": false
        },
        {
          "address": "0xcc9ee9483f662091a1de4795249e24ac0ac2630f",
          "topics": [
            "0xddf252ad1be2c89b69c2b068fc378daa952ba7f163c4a11628f55a4df523b3ef",
            "0x0000000000000000000000000000000000000000000000000000000000000000",
            "0x000000000000000000000000464c71f6c2f760dda6093dcb91c24c39e5d6e18c"
          ],
          "data": "0x000000000000000000000000000000000000000000000000000ab7ecfe3bfda2",
          "blockHash": "0x3cedda70739715b6ae70b61ce01e3e604cd5d75ba2f59058813a197b87ab432d",
          "blockNumber": "0x1369a36",
          "transactionHash": "0x015bd2c42495d965e9875ab2e70aa654798550a7489bbf5a753aa159d2f715af",
          "transactionIndex": "0x100",
          "logIndex": "0x26b",
          "removed": false
        },
        {
          "address": "0xcc9ee9483f662091a1de4795249e24ac0ac2630f",
          "topics": [
            "0x458f5fa412d0f69b08dd84872b0215675cc67bc1d5b6fd93300a1c3878b86196",
            "0x00000000000000000000000087870bca3f3fd6335c3f4ce8392d69350b4fa4e2",
            "0x000000000000000000000000464c71f6c2f760dda6093dcb91c24c39e5d6e18c"
          ],
          "data": "0x000000000000000000000000000000000000000000000000000ab7ecfe3bfda20000000000000000000000000000000000000000000000000000012e1b761f1d0000000000000000000000000000000000000000033c4ecfe0ba4847f8fca606",
          "blockHash": "0x3cedda70739715b6ae70b61ce01e3e604cd5d75ba2f59058813a197b87ab432d",
          "blockNumber": "0x1369a36",
          "transactionHash": "0x015bd2c42495d965e9875ab2e70aa654798550a7489bbf5a753aa159d2f715af",
          "transactionIndex": "0x100",
          "logIndex": "0x26c",
          "removed": false
        },
        {
          "address": "0x87870bca3f3fd6335c3f4ce8392d69350b4fa4e2",
          "topics": [
            "0xbfa21aa5d5f9a1f0120a95e7c0749f389863cbdbfff531aa7339077a5bc919de",
            "0x000000000000000000000000ae78736cd615f374d3085123a210448e74fc6393"
          ],
          "data": "0x000000000000000000000000000000000000000000000000000ab6bee2c5de85",
          "blockHash": "0x3cedda70739715b6ae70b61ce01e3e604cd5d75ba2f59058813a197b87ab432d",
          "blockNumber": "0x1369a36",
          "transactionHash": "0x015bd2c42495d965e9875ab2e70aa654798550a7489bbf5a753aa159d2f715af",
          "transactionIndex": "0x100",
          "logIndex": "0x26d",
          "removed": false
        },
        {
          "address": "0x3fe6a295459fae07df8a0cecc36f37160fe86aa9",
          "topics": [
            "0xddf252ad1be2c89b69c2b068fc378daa952ba7f163c4a11628f55a4df523b3ef",
            "0x0000000000000000000000000000000000000000000000000000000000000000",
            "0x000000000000000000000000464c71f6c2f760dda6093dcb91c24c39e5d6e18c"
          ],
          "data": "0x000000000000000000000000000000000000000000000005a6da859703c8a14b",
          "blockHash": "0x3cedda70739715b6ae70b61ce01e3e604cd5d75ba2f59058813a197b87ab432d",
          "blockNumber": "0x1369a36",
          "transactionHash": "0x015bd2c42495d965e9875ab2e70aa654798550a7489bbf5a753aa159d2f715af",
          "transactionIndex": "0x100",
          "logIndex": "0x26e",
          "removed": false
        },
        {
          "address": "0x3fe6a295459fae07df8a0cecc36f37160fe86aa9",
          "topics": [
            "0x458f5fa412d0f69b08dd84872b0215675cc67bc1d5b6fd93300a1c3878b86196",
            "0x00000000000000000000000087870bca3f3fd6335c3f4ce8392d69350b4fa4e2",
            "0x000000000000000000000000464c71f6c2f760dda6093dcb91c24c39e5d6e18c"
          ],
          "data": "0x000000000000000000000000000000000000000000000005a6da859703c8a14b0000000000000000000000000000000000000000000000000658fa9a43d6ec33000000000000000000000000000000000000000003735ec572fe48bc45388a6c",
          "blockHash": "0x3cedda70739715b6ae70b61ce01e3e604cd5d75ba2f59058813a197b87ab432d",
          "blockNumber": "0x1369a36",
          "transactionHash": "0x015bd2c42495d965e9875ab2e70aa654798550a7489bbf5a753aa159d2f715af",
          "transactionIndex": "0x100",
          "logIndex": "0x26f",
          "removed": false
        },
        {
          "address": "0x87870bca3f3fd6335c3f4ce8392d69350b4fa4e2",
          "topics": [
            "0xbfa21aa5d5f9a1f0120a95e7c0749f389863cbdbfff531aa7339077a5bc919de",
            "0x0000000000000000000000005f98805a4e8be255a32880fdec7f6728c6568ba0"
          ],
          "data": "0x000000000000000000000000000000000000000000000005a0818afcbff1b518",
          "blockHash": "0x3cedda70739715b6ae70b61ce01e3e604cd5d75ba2f59058813a197b87ab432d",
          "blockNumber": "0x1369a36",
          "transactionHash": "0x015bd2c42495d965e9875ab2e70aa654798550a7489bbf5a753aa159d2f715af",
          "transactionIndex": "0x100",
          "logIndex": "0x270",
          "removed": false
        },
        {
          "address": "0x545bd6c032efdde65a377a6719def2796c8e0f2e",
          "topics": [
            "0xddf252ad1be2c89b69c2b068fc378daa952ba7f163c4a11628f55a4df523b3ef",
            "0x0000000000000000000000000000000000000000000000000000000000000000",
            "0x000000000000000000000000464c71f6c2f760dda6093dcb91c24c39e5d6e18c"
          ],
          "data": "0x00000000000000000000000000000000000000000000000001f720b3c6bf2e64",
          "blockHash": "0x3cedda70739715b6ae70b61ce01e3e604cd5d75ba2f59058813a197b87ab432d",
          "blockNumber": "0x1369a36",
          "transactionHash": "0x015bd2c42495d965e9875ab2e70aa654798550a7489bbf5a753aa159d2f715af",
          "transactionIndex": "0x100",
          "logIndex": "0x271",
          "removed": false
        },
        {
          "address": "0x545bd6c032efdde65a377a6719def2796c8e0f2e",
          "topics": [
            "0x458f5fa412d0f69b08dd84872b0215675cc67bc1d5b6fd93300a1c3878b86196",
            "0x00000000000000000000000087870bca3f3fd6335c3f4ce8392d69350b4fa4e2",
            "0x000000000000000000000000464c71f6c2f760dda6093dcb91c24c39e5d6e18c"
          ],
          "data": "0x00000000000000000000000000000000000000000000000001f720b3c6bf2e6400000000000000000000000000000000000000000000000000000e6e0514eacb0000000000000000000000000000000000000000033b7ba30b9badafdfebe57b",
          "blockHash": "0x3cedda70739715b6ae70b61ce01e3e604cd5d75ba2f59058813a197b87ab432d",
          "blockNumber": "0x1369a36",
          "transactionHash": "0x015bd2c42495d965e9875ab2e70aa654798550a7489bbf5a753aa159d2f715af",
          "transactionIndex": "0x100",
          "logIndex": "0x272",
          "removed": false
        },
        {
          "address": "0x87870bca3f3fd6335c3f4ce8392d69350b4fa4e2",
          "topics": [
            "0xbfa21aa5d5f9a1f0120a95e7c0749f389863cbdbfff531aa7339077a5bc919de",
            "0x000000000000000000000000c18360217d8f7ab5e7c516566761ea12ce7f9d72"
          ],
          "data": "0x00000000000000000000000000000000000000000000000001f71245c1aa4399",
          "blockHash": "0x3cedda70739715b6ae70b61ce01e3e604cd5d75ba2f59058813a197b87ab432d",
          "blockNumber": "0x1369a36",
          "transactionHash": "0x015bd2c42495d965e9875ab2e70aa654798550a7489bbf5a753aa159d2f715af",
          "transactionIndex": "0x100",
          "logIndex": "0x273",
          "removed": false
        },
        {
          "address": "0xd4e245848d6e1220dbe62e155d89fa327e43cb06",
          "topics": [
            "0xddf252ad1be2c89b69c2b068fc378daa952ba7f163c4a11628f55a4df523b3ef",
            "0x0000000000000000000000000000000000000000000000000000000000000000",
            "0x000000000000000000000000464c71f6c2f760dda6093dcb91c24c39e5d6e18c"
          ],
          "data": "0x000000000000000000000000000000000000000000000004b604bcebd8b11267",
          "blockHash": "0x3cedda70739715b6ae70b61ce01e3e604cd5d75ba2f59058813a197b87ab432d",
          "blockNumber": "0x1369a36",
          "transactionHash": "0x015bd2c42495d965e9875ab2e70aa654798550a7489bbf5a753aa159d2f715af",
          "transactionIndex": "0x100",
          "logIndex": "0x274",
          "removed": false
        },
        {
          "address": "0xd4e245848d6e1220dbe62e155d89fa327e43cb06",
          "topics": [
            "0x458f5fa412d0f69b08dd84872b0215675cc67bc1d5b6fd93300a1c3878b86196",
            "0x00000000000000000000000087870bca3f3fd6335c3f4ce8392d69350b4fa4e2",
            "0x000000000000000000000000464c71f6c2f760dda6093dcb91c24c39e5d6e18c"
          ],
          "data": "0x000000000000000000000000000000000000000000000004b604bcebd8b1126700000000000000000000000000000000000000000000000003bf5ecd8fcde296000000000000000000000000000000000000000003755c99918f3700fa82949f",
          "blockHash": "0x3cedda70739715b6ae70b61ce01e3e604cd5d75ba2f59058813a197b87ab432d",
          "blockNumber": "0x1369a36",
          "transactionHash": "0x015bd2c42495d965e9875ab2e70aa654798550a7489bbf5a753aa159d2f715af",
          "transactionIndex": "0x100",
          "logIndex": "0x275",
          "removed": false
        },
        {
          "address": "0x87870bca3f3fd6335c3f4ce8392d69350b4fa4e2",
          "topics": [
            "0xbfa21aa5d5f9a1f0120a95e7c0749f389863cbdbfff531aa7339077a5bc919de",
            "0x000000000000000000000000853d955acef822db058eb8505911ed77f175b99e"
          ],
          "data": "0x000000000000000000000000000000000000000000000004b2455e1e48e32fd1",
          "blockHash": "0x3cedda70739715b6ae70b61ce01e3e604cd5d75ba2f59058813a197b87ab432d",
          "blockNumber": "0x1369a36",
          "transactionHash": "0x015bd2c42495d965e9875ab2e70aa654798550a7489bbf5a753aa159d2f715af",
          "transactionIndex": "0x100",
          "logIndex": "0x276",
          "removed": false
        },
        {
          "address": "0xb76cf92076adbf1d9c39294fa8e7a67579fde357",
          "topics": [
            "0xddf252ad1be2c89b69c2b068fc378daa952ba7f163c4a11628f55a4df523b3ef",
            "0x0000000000000000000000000000000000000000000000000000000000000000",
            "0x000000000000000000000000464c71f6c2f760dda6093dcb91c24c39e5d6e18c"
          ],
          "data": "0x000000000000000000000000000000000000000000000000c85fd1d17d6f0335",
          "blockHash": "0x3cedda70739715b6ae70b61ce01e3e604cd5d75ba2f59058813a197b87ab432d",
          "blockNumber": "0x1369a36",
          "transactionHash": "0x015bd2c42495d965e9875ab2e70aa654798550a7489bbf5a753aa159d2f715af",
          "transactionIndex": "0x100",
          "logIndex": "0x277",
          "removed": false
        },
        {
          "address": "0xb76cf92076adbf1d9c39294fa8e7a67579fde357",
          "topics": [
            "0x458f5fa412d0f69b08dd84872b0215675cc67bc1d5b6fd93300a1c3878b86196",
            "0x00000000000000000000000087870bca3f3fd6335c3f4ce8392d69350b4fa4e2",
            "0x000000000000000000000000464c71f6c2f760dda6093dcb91c24c39e5d6e18c"
          ],
          "data": "0x000000000000000000000000000000000000000000000000c85fd1d17d6f0335000000000000000000000000000000000000000000000000006bffc42e629d2a0000000000000000000000000000000000000000034966c05b86d322d22f8633",
          "blockHash": "0x3cedda70739715b6ae70b61ce01e3e604cd5d75ba2f59058813a197b87ab432d",
          "blockNumber": "0x1369a36",
          "transactionHash": "0x015bd2c42495d965e9875ab2e70aa654798550a7489bbf5a753aa159d2f715af",
          "transactionIndex": "0x100",
          "logIndex": "0x278",
          "removed": false
        },
        {
          "address": "0x87870bca3f3fd6335c3f4ce8392d69350b4fa4e2",
          "topics": [
            "0xbfa21aa5d5f9a1f0120a95e7c0749f389863cbdbfff531aa7339077a5bc919de",
            "0x000000000000000000000000d33526068d116ce69f19a9ee46f0bd304f21a51f"
          ],
          "data": "0x000000000000000000000000000000000000000000000000c7f3d20d4f0c660b",
          "blockHash": "0x3cedda70739715b6ae70b61ce01e3e604cd5d75ba2f59058813a197b87ab432d",
          "blockNumber": "0x1369a36",
          "transactionHash": "0x015bd2c42495d965e9875ab2e70aa654798550a7489bbf5a753aa159d2f715af",
          "transactionIndex": "0x100",
          "logIndex": "0x279",
          "removed": false
        },
        {
          "address": "0x927709711794f3de5ddbf1d176bee2d55ba13c21",
          "topics": [
            "0xddf252ad1be2c89b69c2b068fc378daa952ba7f163c4a11628f55a4df523b3ef",
            "0x0000000000000000000000000000000000000000000000000000000000000000",
            "0x000000000000000000000000464c71f6c2f760dda6093dcb91c24c39e5d6e18c"
          ],
          "data": "0x0000000000000000000000000000000000000000000000000002e1877c44baa8",
          "blockHash": "0x3cedda70739715b6ae70b61ce01e3e604cd5d75ba2f59058813a197b87ab432d",
          "blockNumber": "0x1369a36",
          "transactionHash": "0x015bd2c42495d965e9875ab2e70aa654798550a7489bbf5a753aa159d2f715af",
          "transactionIndex": "0x100",
          "logIndex": "0x27a",
          "removed": false
        },
        {
          "address": "0x927709711794f3de5ddbf1d176bee2d55ba13c21",
          "topics": [
            "0x458f5fa412d0f69b08dd84872b0215675cc67bc1d5b6fd93300a1c3878b86196",
            "0x00000000000000000000000087870bca3f3fd6335c3f4ce8392d69350b4fa4e2",
            "0x000000000000000000000000464c71f6c2f760dda6093dcb91c24c39e5d6e18c"
          ],
          "data": "0x0000000000000000000000000000000000000000000000000002e1877c44baa8000000000000000000000000000000000000000000000000000000018f7075fa0000000000000000000000000000000000000000033b317d20cadbed8205c744",
          "blockHash": "0x3cedda70739715b6ae70b61ce01e3e604cd5d75ba2f59058813a197b87ab432d",
          "blockNumber": "0x1369a36",
          "transactionHash": "0x015bd2c42495d965e9875ab2e70aa654798550a7489bbf5a753aa159d2f715af",
          "transactionIndex": "0x100",
          "logIndex": "0x27b",
          "removed": false
        },
        {
          "address": "0x87870bca3f3fd6335c3f4ce8392d69350b4fa4e2",
          "topics": [
            "0xbfa21aa5d5f9a1f0120a95e7c0749f389863cbdbfff531aa7339077a5bc919de",
            "0x000000000000000000000000f1c9acdc66974dfb6decb12aa385b9cd01190e38"
          ],
          "data": "0x0000000000000000000000000000000000000000000000000002e185ecd444ae",
          "blockHash": "0x3cedda70739715b6ae70b61ce01e3e604cd5d75ba2f59058813a197b87ab432d",
          "blockNumber": "0x1369a36",
          "transactionHash": "0x015bd2c42495d965e9875ab2e70aa654798550a7489bbf5a753aa159d2f715af",
          "transactionIndex": "0x100",
          "logIndex": "0x27c",
          "removed": false
        },
        {
          "address": "0x4f5923fc5fd4a93352581b38b7cd26943012decf",
          "topics": [
            "0xddf252ad1be2c89b69c2b068fc378daa952ba7f163c4a11628f55a4df523b3ef",
            "0x0000000000000000000000000000000000000000000000000000000000000000",
            "0x000000000000000000000000464c71f6c2f760dda6093dcb91c24c39e5d6e18c"
          ],
          "data": "0x000000000000000000000000000000000000000000000029ff24be301d022739",
          "blockHash": "0x3cedda70739715b6ae70b61ce01e3e604cd5d75ba2f59058813a197b87ab432d",
          "blockNumber": "0x1369a36",
          "transactionHash": "0x015bd2c42495d965e9875ab2e70aa654798550a7489bbf5a753aa159d2f715af",
          "transactionIndex": "0x100",
          "logIndex": "0x27d",
          "removed": false
        },
        {
          "address": "0x4f5923fc5fd4a93352581b38b7cd26943012decf",
          "topics": [
            "0x458f5fa412d0f69b08dd84872b0215675cc67bc1d5b6fd93300a1c3878b86196",
            "0x00000000000000000000000087870bca3f3fd6335c3f4ce8392d69350b4fa4e2",
            "0x000000000000000000000000464c71f6c2f760dda6093dcb91c24c39e5d6e18c"
          ],
          "data": "0x000000000000000000000000000000000000000000000029ff24be301d02273900000000000000000000000000000000000000000000000024faad85a2b9de1c0000000000000000000000000000000000000000033edf878d3d0149bf72365b",
          "blockHash": "0x3cedda70739715b6ae70b61ce01e3e604cd5d75ba2f59058813a197b87ab432d",
          "blockNumber": "0x1369a36",
          "transactionHash": "0x015bd2c42495d965e9875ab2e70aa654798550a7489bbf5a753aa159d2f715af",
          "transactionIndex": "0x100",
          "logIndex": "0x27e",
          "removed": false
        },
        {
          "address": "0x87870bca3f3fd6335c3f4ce8392d69350b4fa4e2",
          "topics": [
            "0xbfa21aa5d5f9a1f0120a95e7c0749f389863cbdbfff531aa7339077a5bc919de",
            "0x0000000000000000000000004c9edd5852cd905f086c759e8383e09bff1e68b3"
          ],
          "data": "0x000000000000000000000000000000000000000000000029da2a10aa7a48491d",
          "blockHash": "0x3cedda70739715b6ae70b61ce01e3e604cd5d75ba2f59058813a197b87ab432d",
          "blockNumber": "0x1369a36",
          "transactionHash": "0x015bd2c42495d965e9875ab2e70aa654798550a7489bbf5a753aa159d2f715af",
          "transactionIndex": "0x100",
          "logIndex": "0x27f",
          "removed": false
        }
      ],
      "logsBloom": "0x0002002011000000020000002080000200000000200200040000000000101002800000004120100001000200020400000000400000800004000000008000000000000040000000000000020800000080000000800420000200000006800404000000000002000000010000900000080000000024000000020000001000010028000080008000000000000040040004020000004100000000000000040000200800000000000000001000000000000100001000000000200000000000000002400210000200000000000280000088008040000002012c000010080000000020000000040000000000000000000000080404000002104000100000080000010000",
      "type": "0x2",
      "transactionHash": "0x015bd2c42495d965e9875ab2e70aa654798550a7489bbf5a753aa159d2f715af",
      "transactionIndex": "0x100",
      "blockHash": "0x3cedda70739715b6ae70b61ce01e3e604cd5d75ba2f59058813a197b87ab432d",
      "blockNumber": "0x1369a36",
      "gasUsed": "0xa8431",
      "effectiveGasPrice": "0x100e129ba",
      "from": "0x3cbded22f878afc8d39dcd744d3fe62086b76193",
      "to": "0x87870bca3f3fd6335c3f4ce8392d69350b4fa4e2",
      "contractAddress": null
    }
  ],
  "libraries": [],
  "pending": [],
  "returns": {},
  "timestamp": 1721573672,
  "chain": 1,
  "commit": "36de58b"
}